{
  "_format": "hh-sol-artifact-1",
  "contractName": "BlockPass",
  "sourceName": "contracts/BlockPass.sol",
  "abi": [
    {
      "inputs": [],
      "stateMutability": "nonpayable",
      "type": "constructor"
    },
    {
      "inputs": [
        {
          "internalType": "address",
          "name": "sender",
          "type": "address"
        },
        {
          "internalType": "uint256",
          "name": "tokenId",
          "type": "uint256"
        },
        {
          "internalType": "address",
          "name": "owner",
          "type": "address"
        }
      ],
      "name": "ERC721IncorrectOwner",
      "type": "error"
    },
    {
      "inputs": [
        {
          "internalType": "address",
          "name": "operator",
          "type": "address"
        },
        {
          "internalType": "uint256",
          "name": "tokenId",
          "type": "uint256"
        }
      ],
      "name": "ERC721InsufficientApproval",
      "type": "error"
    },
    {
      "inputs": [
        {
          "internalType": "address",
          "name": "approver",
          "type": "address"
        }
      ],
      "name": "ERC721InvalidApprover",
      "type": "error"
    },
    {
      "inputs": [
        {
          "internalType": "address",
          "name": "operator",
          "type": "address"
        }
      ],
      "name": "ERC721InvalidOperator",
      "type": "error"
    },
    {
      "inputs": [
        {
          "internalType": "address",
          "name": "owner",
          "type": "address"
        }
      ],
      "name": "ERC721InvalidOwner",
      "type": "error"
    },
    {
      "inputs": [
        {
          "internalType": "address",
          "name": "receiver",
          "type": "address"
        }
      ],
      "name": "ERC721InvalidReceiver",
      "type": "error"
    },
    {
      "inputs": [
        {
          "internalType": "address",
          "name": "sender",
          "type": "address"
        }
      ],
      "name": "ERC721InvalidSender",
      "type": "error"
    },
    {
      "inputs": [
        {
          "internalType": "uint256",
          "name": "tokenId",
          "type": "uint256"
        }
      ],
      "name": "ERC721NonexistentToken",
      "type": "error"
    },
    {
      "inputs": [
        {
          "internalType": "address",
          "name": "owner",
          "type": "address"
        }
      ],
      "name": "OwnableInvalidOwner",
      "type": "error"
    },
    {
      "inputs": [
        {
          "internalType": "address",
          "name": "account",
          "type": "address"
        }
      ],
      "name": "OwnableUnauthorizedAccount",
      "type": "error"
    },
    {
      "anonymous": false,
      "inputs": [
        {
          "indexed": true,
          "internalType": "address",
          "name": "owner",
          "type": "address"
        },
        {
          "indexed": true,
          "internalType": "address",
          "name": "approved",
          "type": "address"
        },
        {
          "indexed": true,
          "internalType": "uint256",
          "name": "tokenId",
          "type": "uint256"
        }
      ],
      "name": "Approval",
      "type": "event"
    },
    {
      "anonymous": false,
      "inputs": [
        {
          "indexed": true,
          "internalType": "address",
          "name": "owner",
          "type": "address"
        },
        {
          "indexed": true,
          "internalType": "address",
          "name": "operator",
          "type": "address"
        },
        {
          "indexed": false,
          "internalType": "bool",
          "name": "approved",
          "type": "bool"
        }
      ],
      "name": "ApprovalForAll",
      "type": "event"
    },
    {
      "anonymous": false,
      "inputs": [
        {
          "indexed": false,
          "internalType": "uint256",
          "name": "_fromTokenId",
          "type": "uint256"
        },
        {
          "indexed": false,
          "internalType": "uint256",
          "name": "_toTokenId",
          "type": "uint256"
        }
      ],
      "name": "BatchMetadataUpdate",
      "type": "event"
    },
    {
      "anonymous": false,
      "inputs": [
        {
          "indexed": false,
          "internalType": "uint256",
          "name": "_tokenId",
          "type": "uint256"
        }
      ],
      "name": "MetadataUpdate",
      "type": "event"
    },
    {
      "anonymous": false,
      "inputs": [
        {
          "indexed": true,
          "internalType": "address",
          "name": "previousOwner",
          "type": "address"
        },
        {
          "indexed": true,
          "internalType": "address",
          "name": "newOwner",
          "type": "address"
        }
      ],
      "name": "OwnershipTransferred",
      "type": "event"
    },
    {
      "anonymous": false,
      "inputs": [
        {
          "indexed": true,
          "internalType": "uint256",
          "name": "ticketId",
          "type": "uint256"
        },
        {
          "indexed": true,
          "internalType": "address",
          "name": "organizer",
          "type": "address"
        }
      ],
      "name": "PassCreated",
      "type": "event"
    },
    {
      "anonymous": false,
      "inputs": [
        {
          "indexed": true,
          "internalType": "address",
          "name": "buyer",
          "type": "address"
        },
        {
          "indexed": true,
          "internalType": "uint256",
          "name": "ticketId",
          "type": "uint256"
        },
        {
          "indexed": false,
          "internalType": "uint256",
          "name": "tokenId",
          "type": "uint256"
        },
        {
          "indexed": false,
          "internalType": "uint256",
          "name": "pricePaid",
          "type": "uint256"
        },
        {
          "indexed": false,
          "internalType": "bool",
          "name": "bonus",
          "type": "bool"
        }
      ],
      "name": "PassPurchased",
      "type": "event"
    },
    {
      "anonymous": false,
      "inputs": [
        {
          "indexed": true,
          "internalType": "address",
          "name": "from",
          "type": "address"
        },
        {
          "indexed": true,
          "internalType": "address",
          "name": "to",
          "type": "address"
        },
        {
          "indexed": true,
          "internalType": "uint256",
          "name": "tokenId",
          "type": "uint256"
        }
      ],
      "name": "Transfer",
      "type": "event"
    },
    {
      "anonymous": false,
      "inputs": [
        {
          "indexed": false,
          "internalType": "uint256",
          "name": "priceInWei",
          "type": "uint256"
        }
      ],
      "name": "USDInWei",
      "type": "event"
    },
    {
      "stateMutability": "payable",
      "type": "fallback"
    },
    {
      "inputs": [
        {
          "internalType": "uint256",
          "name": "usdAmount",
          "type": "uint256"
        }
      ],
      "name": "_convertUsdToFLRWei",
      "outputs": [
        {
          "internalType": "uint256",
          "name": "flrPriceInWei",
          "type": "uint256"
        }
      ],
      "stateMutability": "nonpayable",
      "type": "function"
    },
    {
      "inputs": [],
      "name": "allBlockPassList",
      "outputs": [
        {
          "components": [
            {
              "internalType": "address",
              "name": "organizer",
              "type": "address"
            },
            {
              "internalType": "string",
              "name": "metadata",
              "type": "string"
            },
            {
              "internalType": "string",
              "name": "category",
              "type": "string"
            },
            {
              "internalType": "address",
              "name": "tokenAddress",
              "type": "address"
            },
            {
              "internalType": "int64",
              "name": "passesSold",
              "type": "int64"
            },
            {
              "internalType": "int64",
              "name": "maxPasses",
              "type": "int64"
            },
            {
              "internalType": "uint256",
              "name": "passPriceUSD",
              "type": "uint256"
            },
            {
              "internalType": "uint256",
              "name": "startTime",
              "type": "uint256"
            },
            {
              "internalType": "uint256",
              "name": "salesEndTime",
              "type": "uint256"
            },
            {
              "internalType": "bool",
              "name": "bpEnded",
              "type": "bool"
            }
          ],
          "internalType": "struct BlockPass.TicketPassDetails[]",
          "name": "",
          "type": "tuple[]"
        }
      ],
      "stateMutability": "view",
      "type": "function"
    },
    {
      "inputs": [
        {
          "internalType": "address",
          "name": "to",
          "type": "address"
        },
        {
          "internalType": "uint256",
          "name": "tokenId",
          "type": "uint256"
        }
      ],
      "name": "approve",
      "outputs": [],
      "stateMutability": "nonpayable",
      "type": "function"
    },
    {
      "inputs": [
        {
          "internalType": "address",
          "name": "owner",
          "type": "address"
        }
      ],
      "name": "balanceOf",
      "outputs": [
        {
          "internalType": "uint256",
          "name": "",
          "type": "uint256"
        }
      ],
      "stateMutability": "view",
      "type": "function"
    },
    {
      "inputs": [
        {
          "internalType": "uint256",
          "name": "",
          "type": "uint256"
        }
      ],
      "name": "blockPassList",
      "outputs": [
        {
          "internalType": "address",
          "name": "organizer",
          "type": "address"
        },
        {
          "internalType": "string",
          "name": "metadata",
          "type": "string"
        },
        {
          "internalType": "string",
          "name": "category",
          "type": "string"
        },
        {
          "internalType": "address",
          "name": "tokenAddress",
          "type": "address"
        },
        {
          "internalType": "int64",
          "name": "passesSold",
          "type": "int64"
        },
        {
          "internalType": "int64",
          "name": "maxPasses",
          "type": "int64"
        },
        {
          "internalType": "uint256",
          "name": "passPriceUSD",
          "type": "uint256"
        },
        {
          "internalType": "uint256",
          "name": "startTime",
          "type": "uint256"
        },
        {
          "internalType": "uint256",
          "name": "salesEndTime",
          "type": "uint256"
        },
        {
          "internalType": "bool",
          "name": "bpEnded",
          "type": "bool"
        }
      ],
      "stateMutability": "view",
      "type": "function"
    },
    {
      "inputs": [
        {
          "internalType": "int64",
          "name": "maxPasses",
          "type": "int64"
        },
        {
          "internalType": "uint256",
          "name": "passPriceUSD",
          "type": "uint256"
        },
        {
          "internalType": "string",
          "name": "metadata",
          "type": "string"
        },
        {
          "internalType": "string",
          "name": "category",
          "type": "string"
        },
        {
          "internalType": "uint256",
          "name": "salesEndTime",
          "type": "uint256"
        }
      ],
      "name": "createNewPass",
      "outputs": [],
      "stateMutability": "nonpayable",
      "type": "function"
    },
    {
      "inputs": [],
      "name": "getAllPasses",
      "outputs": [
        {
          "components": [
            {
              "internalType": "address",
              "name": "organizer",
              "type": "address"
            },
            {
              "internalType": "string",
              "name": "metadata",
              "type": "string"
            },
            {
              "internalType": "string",
              "name": "category",
              "type": "string"
            },
            {
              "internalType": "address",
              "name": "tokenAddress",
              "type": "address"
            },
            {
              "internalType": "int64",
              "name": "passesSold",
              "type": "int64"
            },
            {
              "internalType": "int64",
              "name": "maxPasses",
              "type": "int64"
            },
            {
              "internalType": "uint256",
              "name": "passPriceUSD",
              "type": "uint256"
            },
            {
              "internalType": "uint256",
              "name": "startTime",
              "type": "uint256"
            },
            {
              "internalType": "uint256",
              "name": "salesEndTime",
              "type": "uint256"
            },
            {
              "internalType": "bool",
              "name": "bpEnded",
              "type": "bool"
            }
          ],
          "internalType": "struct BlockPass.TicketPassDetails[]",
          "name": "",
          "type": "tuple[]"
        }
      ],
      "stateMutability": "view",
      "type": "function"
    },
    {
      "inputs": [
        {
          "internalType": "uint256",
          "name": "tokenId",
          "type": "uint256"
        }
      ],
      "name": "getApproved",
      "outputs": [
        {
          "internalType": "address",
          "name": "",
          "type": "address"
        }
      ],
      "stateMutability": "view",
      "type": "function"
    },
    {
      "inputs": [
        {
          "internalType": "string",
          "name": "category",
          "type": "string"
        }
      ],
      "name": "getByCategory",
      "outputs": [
        {
          "components": [
            {
              "internalType": "address",
              "name": "organizer",
              "type": "address"
            },
            {
              "internalType": "string",
              "name": "metadata",
              "type": "string"
            },
            {
              "internalType": "string",
              "name": "category",
              "type": "string"
            },
            {
              "internalType": "address",
              "name": "tokenAddress",
              "type": "address"
            },
            {
              "internalType": "int64",
              "name": "passesSold",
              "type": "int64"
            },
            {
              "internalType": "int64",
              "name": "maxPasses",
              "type": "int64"
            },
            {
              "internalType": "uint256",
              "name": "passPriceUSD",
              "type": "uint256"
            },
            {
              "internalType": "uint256",
              "name": "startTime",
              "type": "uint256"
            },
            {
              "internalType": "uint256",
              "name": "salesEndTime",
              "type": "uint256"
            },
            {
              "internalType": "bool",
              "name": "bpEnded",
              "type": "bool"
            }
          ],
          "internalType": "struct BlockPass.TicketPassDetails[]",
          "name": "",
          "type": "tuple[]"
        }
      ],
      "stateMutability": "view",
      "type": "function"
    },
    {
      "inputs": [
        {
          "internalType": "address",
          "name": "user",
          "type": "address"
        }
      ],
      "name": "getUserPurchases",
      "outputs": [
        {
          "components": [
            {
              "internalType": "address",
              "name": "organizer",
              "type": "address"
            },
            {
              "internalType": "string",
              "name": "metadata",
              "type": "string"
            },
            {
              "internalType": "string",
              "name": "category",
              "type": "string"
            },
            {
              "internalType": "address",
              "name": "tokenAddress",
              "type": "address"
            },
            {
              "internalType": "int64",
              "name": "passesSold",
              "type": "int64"
            },
            {
              "internalType": "int64",
              "name": "maxPasses",
              "type": "int64"
            },
            {
              "internalType": "uint256",
              "name": "passPriceUSD",
              "type": "uint256"
            },
            {
              "internalType": "uint256",
              "name": "startTime",
              "type": "uint256"
            },
            {
              "internalType": "uint256",
              "name": "salesEndTime",
              "type": "uint256"
            },
            {
              "internalType": "bool",
              "name": "bpEnded",
              "type": "bool"
            }
          ],
          "internalType": "struct BlockPass.TicketPassDetails[]",
          "name": "",
          "type": "tuple[]"
        }
      ],
      "stateMutability": "view",
      "type": "function"
    },
    {
      "inputs": [
        {
          "internalType": "address",
          "name": "user",
          "type": "address"
        }
      ],
      "name": "getUserTokens",
      "outputs": [
        {
          "internalType": "uint256[]",
          "name": "",
          "type": "uint256[]"
        }
      ],
      "stateMutability": "view",
      "type": "function"
    },
    {
      "inputs": [
        {
          "internalType": "address",
          "name": "owner",
          "type": "address"
        },
        {
          "internalType": "address",
          "name": "operator",
          "type": "address"
        }
      ],
      "name": "isApprovedForAll",
      "outputs": [
        {
          "internalType": "bool",
          "name": "",
          "type": "bool"
        }
      ],
      "stateMutability": "view",
      "type": "function"
    },
    {
      "inputs": [
        {
          "internalType": "string",
          "name": "",
          "type": "string"
        }
      ],
      "name": "lastSavedPrice",
      "outputs": [
        {
          "internalType": "uint256",
          "name": "",
          "type": "uint256"
        }
      ],
      "stateMutability": "view",
      "type": "function"
    },
    {
      "inputs": [
        {
          "internalType": "string",
          "name": "",
          "type": "string"
        }
      ],
      "name": "lastSavedTimestamp",
      "outputs": [
        {
          "internalType": "uint256",
          "name": "",
          "type": "uint256"
        }
      ],
      "stateMutability": "view",
      "type": "function"
    },
    {
      "inputs": [],
      "name": "name",
      "outputs": [
        {
          "internalType": "string",
          "name": "",
          "type": "string"
        }
      ],
      "stateMutability": "view",
      "type": "function"
    },
    {
      "inputs": [],
      "name": "owner",
      "outputs": [
        {
          "internalType": "address",
          "name": "",
          "type": "address"
        }
      ],
      "stateMutability": "view",
      "type": "function"
    },
    {
      "inputs": [
        {
          "internalType": "uint256",
          "name": "tokenId",
          "type": "uint256"
        }
      ],
      "name": "ownerOf",
      "outputs": [
        {
          "internalType": "address",
          "name": "",
          "type": "address"
        }
      ],
      "stateMutability": "view",
      "type": "function"
    },
    {
      "inputs": [
        {
          "internalType": "address",
          "name": "",
          "type": "address"
        },
        {
          "internalType": "uint256",
          "name": "",
          "type": "uint256"
        }
      ],
      "name": "passesPurchasedByUser",
      "outputs": [
        {
          "internalType": "address",
          "name": "organizer",
          "type": "address"
        },
        {
          "internalType": "string",
          "name": "metadata",
          "type": "string"
        },
        {
          "internalType": "string",
          "name": "category",
          "type": "string"
        },
        {
          "internalType": "address",
          "name": "tokenAddress",
          "type": "address"
        },
        {
          "internalType": "int64",
          "name": "passesSold",
          "type": "int64"
        },
        {
          "internalType": "int64",
          "name": "maxPasses",
          "type": "int64"
        },
        {
          "internalType": "uint256",
          "name": "passPriceUSD",
          "type": "uint256"
        },
        {
          "internalType": "uint256",
          "name": "startTime",
          "type": "uint256"
        },
        {
          "internalType": "uint256",
          "name": "salesEndTime",
          "type": "uint256"
        },
        {
          "internalType": "bool",
          "name": "bpEnded",
          "type": "bool"
        }
      ],
      "stateMutability": "view",
      "type": "function"
    },
    {
      "inputs": [
        {
          "internalType": "uint256",
          "name": "_ticketId",
          "type": "uint256"
        }
      ],
      "name": "purchasePass",
      "outputs": [],
      "stateMutability": "payable",
      "type": "function"
    },
    {
      "inputs": [],
      "name": "renounceOwnership",
      "outputs": [],
      "stateMutability": "nonpayable",
      "type": "function"
    },
    {
      "inputs": [
        {
          "internalType": "address",
          "name": "from",
          "type": "address"
        },
        {
          "internalType": "address",
          "name": "to",
          "type": "address"
        },
        {
          "internalType": "uint256",
          "name": "tokenId",
          "type": "uint256"
        }
      ],
      "name": "safeTransferFrom",
      "outputs": [],
      "stateMutability": "nonpayable",
      "type": "function"
    },
    {
      "inputs": [
        {
          "internalType": "address",
          "name": "from",
          "type": "address"
        },
        {
          "internalType": "address",
          "name": "to",
          "type": "address"
        },
        {
          "internalType": "uint256",
          "name": "tokenId",
          "type": "uint256"
        },
        {
          "internalType": "bytes",
          "name": "data",
          "type": "bytes"
        }
      ],
      "name": "safeTransferFrom",
      "outputs": [],
      "stateMutability": "nonpayable",
      "type": "function"
    },
    {
      "inputs": [
        {
          "internalType": "address",
          "name": "operator",
          "type": "address"
        },
        {
          "internalType": "bool",
          "name": "approved",
          "type": "bool"
        }
      ],
      "name": "setApprovalForAll",
      "outputs": [],
      "stateMutability": "nonpayable",
      "type": "function"
    },
    {
      "inputs": [
        {
          "internalType": "uint256",
          "name": "_threshold",
          "type": "uint256"
        }
      ],
      "name": "setVolatilityThreshold",
      "outputs": [],
      "stateMutability": "nonpayable",
      "type": "function"
    },
    {
      "inputs": [
        {
          "internalType": "bytes4",
          "name": "interfaceId",
          "type": "bytes4"
        }
      ],
      "name": "supportsInterface",
      "outputs": [
        {
          "internalType": "bool",
          "name": "",
          "type": "bool"
        }
      ],
      "stateMutability": "view",
      "type": "function"
    },
    {
      "inputs": [],
      "name": "symbol",
      "outputs": [
        {
          "internalType": "string",
          "name": "",
          "type": "string"
        }
      ],
      "stateMutability": "view",
      "type": "function"
    },
    {
      "inputs": [],
      "name": "ticketPassCount",
      "outputs": [
        {
          "internalType": "uint256",
          "name": "",
          "type": "uint256"
        }
      ],
      "stateMutability": "view",
      "type": "function"
    },
    {
      "inputs": [
        {
          "internalType": "uint256",
          "name": "",
          "type": "uint256"
        }
      ],
      "name": "ticketPasses",
      "outputs": [
        {
          "internalType": "address",
          "name": "organizer",
          "type": "address"
        },
        {
          "internalType": "string",
          "name": "metadata",
          "type": "string"
        },
        {
          "internalType": "string",
          "name": "category",
          "type": "string"
        },
        {
          "internalType": "address",
          "name": "tokenAddress",
          "type": "address"
        },
        {
          "internalType": "int64",
          "name": "passesSold",
          "type": "int64"
        },
        {
          "internalType": "int64",
          "name": "maxPasses",
          "type": "int64"
        },
        {
          "internalType": "uint256",
          "name": "passPriceUSD",
          "type": "uint256"
        },
        {
          "internalType": "uint256",
          "name": "startTime",
          "type": "uint256"
        },
        {
          "internalType": "uint256",
          "name": "salesEndTime",
          "type": "uint256"
        },
        {
          "internalType": "bool",
          "name": "bpEnded",
          "type": "bool"
        }
      ],
      "stateMutability": "view",
      "type": "function"
    },
    {
      "inputs": [
        {
          "internalType": "address",
          "name": "",
          "type": "address"
        },
        {
          "internalType": "uint256",
          "name": "",
          "type": "uint256"
        }
      ],
      "name": "tokenOfOwnerByIndex",
      "outputs": [
        {
          "internalType": "uint256",
          "name": "",
          "type": "uint256"
        }
      ],
      "stateMutability": "view",
      "type": "function"
    },
    {
      "inputs": [
        {
          "internalType": "uint256",
          "name": "tokenId",
          "type": "uint256"
        }
      ],
      "name": "tokenURI",
      "outputs": [
        {
          "internalType": "string",
          "name": "",
          "type": "string"
        }
      ],
      "stateMutability": "view",
      "type": "function"
    },
    {
      "inputs": [
        {
          "internalType": "address",
          "name": "from",
          "type": "address"
        },
        {
          "internalType": "address",
          "name": "to",
          "type": "address"
        },
        {
          "internalType": "uint256",
          "name": "tokenId",
          "type": "uint256"
        }
      ],
      "name": "transferFrom",
      "outputs": [],
      "stateMutability": "nonpayable",
      "type": "function"
    },
    {
      "inputs": [
        {
          "internalType": "address",
          "name": "newOwner",
          "type": "address"
        }
      ],
      "name": "transferOwnership",
      "outputs": [],
      "stateMutability": "nonpayable",
      "type": "function"
    },
    {
      "inputs": [],
      "name": "volatilityThreshold",
      "outputs": [
        {
          "internalType": "uint256",
          "name": "",
          "type": "uint256"
        }
      ],
      "stateMutability": "view",
      "type": "function"
    },
    {
      "stateMutability": "payable",
      "type": "receive"
    }
  ],
  "bytecode": "0x60806040526001600855600a805534801561001957600080fd5b503360405180604001604052806009815260200168426c6f636b5061737360b81b81525060405180604001604052806005815260200164425041535360d81b815250816000908161006a91906102a3565b50600161007782826102a3565b5050506001600160a01b0381166100a857604051631e4fbdf760e01b81526000600482015260240160405180910390fd5b6100b1816100df565b506100ba610131565b600c80546001600160a01b0319166001600160a01b0392909216919091179055610392565b600780546001600160a01b038381166001600160a01b0319831681179093556040519116919082907f8be0079c531659141344cd1fd0a4f28419497f9722a3daafe3b4186f6b6457e090600090a35050565b600073ad67fe66660fb8dfe9d6b1b4240d8650e30f60196001600160a01b031663159354a2604051602001610188906020808252600e908201526d2930b73237b6a73ab6b132b92b1960911b604082015260600190565b604051602081830303815290604052805190602001206040518263ffffffff1660e01b81526004016101bc91815260200190565b602060405180830381865afa1580156101d9573d6000803e3d6000fd5b505050506040513d601f19601f820116820180604052508101906101fd9190610362565b905090565b634e487b7160e01b600052604160045260246000fd5b600181811c9082168061022c57607f821691505b60208210810361024c57634e487b7160e01b600052602260045260246000fd5b50919050565b601f82111561029e576000816000526020600020601f850160051c8101602086101561027b5750805b601f850160051c820191505b8181101561029a57828155600101610287565b5050505b505050565b81516001600160401b038111156102bc576102bc610202565b6102d0816102ca8454610218565b84610252565b602080601f83116001811461030557600084156102ed5750858301515b600019600386901b1c1916600185901b17855561029a565b600085815260208120601f198616915b8281101561033457888601518255948401946001909101908401610315565b50858210156103525787850151600019600388901b60f8161c191681555b5050505050600190811b01905550565b60006020828403121561037457600080fd5b81516001600160a01b038116811461038b57600080fd5b9392505050565b613c1d806103a16000396000f3fe6080604052600436106101da5760003560e01c8063715018a611610101578063a22cb4651161009a578063c87b56dd1161006c578063c87b56dd146105b1578063d1d73635146105d1578063d3e4c05f146105f1578063e985e9c514610611578063f2fde38b1461063157005b8063a22cb4651461053c578063a231c2fb1461055c578063b88d4fde14610571578063c6e5d8f61461059157005b80638da5cb5b116100d35780638da5cb5b146104d35780638ea6b9c8146104f157806395d89b41146105115780639fe88c841461052657005b8063715018a6146104505780637a5e3ce4146104655780637db757721461047b5780638944a3b9146104b357005b80632f745c5911610173578063519dc8d211610145578063519dc8d2146103ab5780636352211e146103d85780636f323d11146103f857806370a082311461043057005b80632f745c591461031d57806336a5af0d1461034b5780633f316fc51461036b57806342842e0e1461038b57005b80630c1f5659116101ac5780630c1f56591461029257806314462eda146102c85780631be59b75146102db57806323b872dd146102fd57005b806301ffc9a7146101e357806306fdde0314610218578063081812fc1461023a578063095ea7b31461027257005b366101e157005b005b3480156101ef57600080fd5b506102036101fe366004612fd9565b610651565b60405190151581526020015b60405180910390f35b34801561022457600080fd5b5061022d61067c565b60405161020f9190613046565b34801561024657600080fd5b5061025a610255366004613059565b61070e565b6040516001600160a01b03909116815260200161020f565b34801561027e57600080fd5b506101e161028d366004613087565b610737565b34801561029e57600080fd5b506102b26102ad366004613087565b610746565b60405161020f9a999897969594939291906130b3565b6101e16102d6366004613059565b6108e5565b3480156102e757600080fd5b506102f0610d58565b60405161020f919061312d565b34801561030957600080fd5b506101e161031836600461323c565b610f55565b34801561032957600080fd5b5061033d610338366004613087565b610fe0565b60405190815260200161020f565b34801561035757600080fd5b506102b2610366366004613059565b611011565b34801561037757600080fd5b506101e1610386366004613328565b611050565b34801561039757600080fd5b506101e16103a636600461323c565b611325565b3480156103b757600080fd5b506103cb6103c63660046133b5565b611345565b60405161020f91906133d2565b3480156103e457600080fd5b5061025a6103f3366004613059565b611407565b34801561040457600080fd5b5061033d61041336600461340a565b805160208183018101805160108252928201919093012091525481565b34801561043c57600080fd5b5061033d61044b3660046133b5565b611412565b34801561045c57600080fd5b506101e161145a565b34801561047157600080fd5b5061033d60095481565b34801561048757600080fd5b5061033d61049636600461340a565b805160208183018101805160118252928201919093012091525481565b3480156104bf57600080fd5b506102b26104ce366004613059565b61146e565b3480156104df57600080fd5b506007546001600160a01b031661025a565b3480156104fd57600080fd5b506102f061050c36600461340a565b61149a565b34801561051d57600080fd5b5061022d611771565b34801561053257600080fd5b5061033d600a5481565b34801561054857600080fd5b506101e161055736600461344c565b611780565b34801561056857600080fd5b506102f061178b565b34801561057d57600080fd5b506101e161058c366004613485565b6119cd565b34801561059d57600080fd5b506102f06105ac3660046133b5565b6119e5565b3480156105bd57600080fd5b5061022d6105cc366004613059565b611bf8565b3480156105dd57600080fd5b506101e16105ec366004613059565b611d01565b3480156105fd57600080fd5b5061033d61060c366004613059565b611d0e565b34801561061d57600080fd5b5061020361062c366004613504565b611eca565b34801561063d57600080fd5b506101e161064c3660046133b5565b611ef8565b60006001600160e01b03198216632483248360e11b1480610676575061067682611f36565b92915050565b60606000805461068b90613532565b80601f01602080910402602001604051908101604052809291908181526020018280546106b790613532565b80156107045780601f106106d957610100808354040283529160200191610704565b820191906000526020600020905b8154815290600101906020018083116106e757829003601f168201915b5050505050905090565b600061071982611f86565b506000828152600460205260409020546001600160a01b0316610676565b610742828233611fbf565b5050565b600e602052816000526040600020818154811061076257600080fd5b6000918252602090912060099091020180546001820180546001600160a01b03909216945091925061079390613532565b80601f01602080910402602001604051908101604052809291908181526020018280546107bf90613532565b801561080c5780601f106107e15761010080835404028352916020019161080c565b820191906000526020600020905b8154815290600101906020018083116107ef57829003601f168201915b50505050509080600201805461082190613532565b80601f016020809104026020016040519081016040528092919081815260200182805461084d90613532565b801561089a5780601f1061086f5761010080835404028352916020019161089a565b820191906000526020600020905b81548152906001019060200180831161087d57829003601f168201915b50505050600383015460048401546005850154600686015460078088015460089098015496976001600160a01b03861697600160a01b909604820b965093900b939192909160ff168a565b6000818152600d602052604090206006810154421080159061090b575080600701544211155b6109515760405162461bcd60e51b81526020600482015260126024820152714e6f7420696e2073616c652077696e646f7760701b60448201526064015b60405180910390fd5b600881015460ff16156109945760405162461bcd60e51b815260206004820152600b60248201526a14d85b195cc8195b99195960aa1b6044820152606401610948565b60048101546003820154600791820b600160a01b90910490910b126109e65760405162461bcd60e51b815260206004820152600860248201526714dbdb19081bdd5d60c21b6044820152606401610948565b610a0e604051806040016040528060078152602001661193148bd554d160ca1b815250611fcc565b6000610a1d8260050154611d0e565b90506000819050610a4c604051806040016040528060078152602001661193148bd554d160ca1b815250612182565b15610a6b576064610a5e83605a61357c565b610a6891906135a9565b90505b80341015610ab35760405162461bcd60e51b8152602060048201526015602482015274125b9cdd59999a58da595b9d08119314881cd95b9d605a1b6044820152606401610948565b6000610abd6121fe565b90506000610acd86848685612290565b9050610adb3360085461236f565b610ae760085482612389565b600385018054600160a01b900460070b906014610b03836135bd565b82546001600160401b039182166101009390930a928302919092021990911617905550336000908152600e60209081526040822080546001818101835591845291909220875460099092020180546001600160a01b0319166001600160a01b0392909216919091178155869181810190610b7f9084018261362b565b50600281810190610b929084018261362b565b506003828101805491830180546001600160a01b039093166001600160a01b031984168117825591546001600160e01b0319909316909117600160a01b928390046001600160401b03908116909302179055600480840154908301805467ffffffffffffffff191691909216179055600580830154908201556006808301549082015560078083015490820155600891820154908201805460ff191660ff9092161515919091179055336000818152600f6020908152604080832085548154600181018355918552938390200192909255925481519081529283018690528415159083015287917fe1733dda0a35b3575afae89811cade653318ed099108b8b80709bc7b5628b8ad9060600160405180910390a360006064610cb585605a61357c565b610cbf91906135a9565b86546040519192506001600160a01b03169082156108fc029083906000818181858888f19350505050158015610cf9573d6000803e3d6000fd5b5083341115610d3a57336108fc610d108634613707565b6040518115909202916000818181858888f19350505050158015610d38573d6000803e3d6000fd5b505b60088054906000610d4a8361371a565b919050555050505050505050565b6060600b805480602002602001604051908101604052809291908181526020016000905b82821015610f4c5760008481526020908190206040805161014081019091526009850290910180546001600160a01b031682526001810180549293919291840191610dc690613532565b80601f0160208091040260200160405190810160405280929190818152602001828054610df290613532565b8015610e3f5780601f10610e1457610100808354040283529160200191610e3f565b820191906000526020600020905b815481529060010190602001808311610e2257829003601f168201915b50505050508152602001600282018054610e5890613532565b80601f0160208091040260200160405190810160405280929190818152602001828054610e8490613532565b8015610ed15780601f10610ea657610100808354040283529160200191610ed1565b820191906000526020600020905b815481529060010190602001808311610eb457829003601f168201915b505050918352505060038201546001600160a01b038116602080840191909152600160a01b909104600790810b60408401526004840154810b606084015260058401546080840152600684015460a084015283015460c083015260089092015460ff16151560e0909101529082526001929092019101610d7c565b50505050905090565b6001600160a01b038216610f7f57604051633250574960e11b815260006004820152602401610948565b6000610f8c8383336123d9565b9050836001600160a01b0316816001600160a01b031614610fda576040516364283d7b60e01b81526001600160a01b0380861660048301526024820184905282166044820152606401610948565b50505050565b600f6020528160005260406000208181548110610ffc57600080fd5b90600052602060002001600091509150505481565b600b818154811061102157600080fd5b6000918252602090912060099091020180546001820180546001600160a01b0390921693509061079390613532565b6000604051806101400160405280336001600160a01b03168152602001858152602001848152602001306001600160a01b03168152602001600060070b81526020018760070b815260200186815260200142815260200183426110b39190613733565b8152600060209182018190526009548152600d825260409020825181546001600160a01b0319166001600160a01b0390911617815590820151919250829160018201906111009082613746565b50604082015160028201906111159082613746565b50606082015160038201805460808501516001600160a01b039384166001600160e01b031990921691909117600160a01b6001600160401b03928316021790915560a084015160048401805467ffffffffffffffff19169190921617905560c0830151600583015560e083015160068301556101008301516007830155610120909201516008909101805460ff1916911515919091179055600b805460018101825560009190915282517f0175b7a638427703f0dbe7bb9bbf987a2551717b34e79f33b5b1008d1fa01db9600990920291820180546001600160a01b0319169190931617825560208301518392917f0175b7a638427703f0dbe7bb9bbf987a2551717b34e79f33b5b1008d1fa01dba01906112309082613746565b50604082015160028201906112459082613746565b50606082015160038201805460808501516001600160a01b039093166001600160e01b031990911617600160a01b6001600160401b039384160217905560a083015160048301805467ffffffffffffffff19169190921617905560c0820151600582015560e082015160068201556101008201516007820155610120909101516008909101805460ff19169115159190911790556009546040513391907f4ee25b9cf3354f01e5e2f24f5ac7f2c94b22defe81abd8e113e2a6025682a69590600090a3600980549060006113188361371a565b9190505550505050505050565b611340838383604051806020016040528060008152506119cd565b505050565b6060600061135283611412565b90506000816001600160401b0381111561136e5761136e61327d565b604051908082528060200260200182016040528015611397578160200160208202803683370190505b50905060005b828110156113ff576001600160a01b0385166000908152600f602052604090208054829081106113cf576113cf6137fd565b90600052602060002001548282815181106113ec576113ec6137fd565b602090810291909101015260010161139d565b509392505050565b600061067682611f86565b60006001600160a01b03821661143e576040516322718ad960e21b815260006004820152602401610948565b506001600160a01b031660009081526003602052604090205490565b6114626124d4565b61146c6000612501565b565b600d60205260009081526040902080546001820180546001600160a01b03909216929161079390613532565b60606000806000600b805490506001600160401b038111156114be576114be61327d565b6040519080825280602002602001820160405280156114f757816020015b6114e4612f56565b8152602001906001900390816114dc5790505b5090505b600b54831015611769576000600b848154811061151a5761151a6137fd565b600091825260209182902060408051610140810190915260099092020180546001600160a01b03168252600181018054929391929184019161155b90613532565b80601f016020809104026020016040519081016040528092919081815260200182805461158790613532565b80156115d45780601f106115a9576101008083540402835291602001916115d4565b820191906000526020600020905b8154815290600101906020018083116115b757829003601f168201915b505050505081526020016002820180546115ed90613532565b80601f016020809104026020016040519081016040528092919081815260200182805461161990613532565b80156116665780601f1061163b57610100808354040283529160200191611666565b820191906000526020600020905b81548152906001019060200180831161164957829003601f168201915b505050918352505060038201546001600160a01b038116602080840191909152600160a01b909104600790810b6040808501919091526004850154820b606085015260058501546080850152600685015460a08501529084015460c084015260089093015460ff16151560e09092019190915290519192506116ea91889101613813565b6040516020818303038152906040528051906020012081604001516040516020016117159190613813565b604051602081830303815290604052805190602001200361175d5780828481518110611743576117436137fd565b602002602001018190525082806117599061371a565b9350505b506001909201916114fb565b949350505050565b60606001805461068b90613532565b610742338383612553565b606060006009546001600160401b038111156117a9576117a961327d565b6040519080825280602002602001820160405280156117e257816020015b6117cf612f56565b8152602001906001900390816117c75790505b50905060005b6009548110156119c7576000818152600d60209081526040918290208251610140810190935280546001600160a01b03168352600181018054919284019161182f90613532565b80601f016020809104026020016040519081016040528092919081815260200182805461185b90613532565b80156118a85780601f1061187d576101008083540402835291602001916118a8565b820191906000526020600020905b81548152906001019060200180831161188b57829003601f168201915b505050505081526020016002820180546118c190613532565b80601f01602080910402602001604051908101604052809291908181526020018280546118ed90613532565b801561193a5780601f1061190f5761010080835404028352916020019161193a565b820191906000526020600020905b81548152906001019060200180831161191d57829003601f168201915b505050918352505060038201546001600160a01b0381166020830152600160a01b9004600790810b60408301526004830154810b606083015260058301546080830152600683015460a083015282015460c082015260089091015460ff16151560e09091015282518390839081106119b4576119b46137fd565b60209081029190910101526001016117e8565b50919050565b6119d8848484610f55565b610fda33858585856125f2565b6001600160a01b0381166000908152600e60209081526040808320805482518185028101850190935280835260609492939192909184015b82821015611bed5760008481526020908190206040805161014081019091526009850290910180546001600160a01b031682526001810180549293919291840191611a6790613532565b80601f0160208091040260200160405190810160405280929190818152602001828054611a9390613532565b8015611ae05780601f10611ab557610100808354040283529160200191611ae0565b820191906000526020600020905b815481529060010190602001808311611ac357829003601f168201915b50505050508152602001600282018054611af990613532565b80601f0160208091040260200160405190810160405280929190818152602001828054611b2590613532565b8015611b725780601f10611b4757610100808354040283529160200191611b72565b820191906000526020600020905b815481529060010190602001808311611b5557829003601f168201915b505050918352505060038201546001600160a01b038116602080840191909152600160a01b909104600790810b60408401526004840154810b606084015260058401546080840152600684015460a084015283015460c083015260089092015460ff16151560e0909101529082526001929092019101611a1d565b505050509050919050565b6060611c0382611f86565b5060008281526006602052604081208054611c1d90613532565b80601f0160208091040260200160405190810160405280929190818152602001828054611c4990613532565b8015611c965780601f10611c6b57610100808354040283529160200191611c96565b820191906000526020600020905b815481529060010190602001808311611c7957829003601f168201915b505050505090506000611cb460408051602081019091526000815290565b90508051600003611cc6575092915050565b815115611cf8578082604051602001611ce092919061382f565b60405160208183030381529060405292505050919050565b6117698461271d565b611d096124d4565b600a55565b600080611d19612791565b90506000611d2561285a565b60408051633e2dea0960e21b815260016004820152602481019190915260076044820152661193148bd554d160ca1b60648201526001600160a01b03919091169063f8b7a82490608401602060405180830381865afa158015611d8c573d6000803e3d6000fd5b505050506040513d601f19601f82011682018060405250810190611db0919061385e565b604051632cff56fb60e11b81526001600160581b0319821660048201529091506001600160a01b038316906359feadf69060240160408051808303816000875af1158015611e02573d6000803e3d6000fd5b505050506040513d601f19601f82011682018060405250810190611e269190613888565b50925082611e6b5760405162461bcd60e51b8152602060048201526012602482015271496e76616c6964204654534f20707269636560701b6044820152606401610948565b82611e7e85670de0b6b3a764000061357c565b611e8891906135a9565b92507f186388859642f2fd96e5dd89f690b2e28d22af47d2d3e29e8c82a8be57db299483604051611ebb91815260200190565b60405180910390a15050919050565b6001600160a01b03918216600090815260056020908152604080832093909416825291909152205460ff1690565b611f006124d4565b6001600160a01b038116611f2a57604051631e4fbdf760e01b815260006004820152602401610948565b611f3381612501565b50565b60006001600160e01b031982166380ac58cd60e01b1480611f6757506001600160e01b03198216635b5e139f60e01b145b8061067657506301ffc9a760e01b6001600160e01b0319831614610676565b6000818152600260205260408120546001600160a01b03168061067657604051637e27328960e01b815260048101849052602401610948565b61134083838360016128b6565b601081604051611fdc9190613813565b908152602001604051809103902054600003611f33576000611ffc612791565b9050600061200861285a565b6001600160a01b031663f8b7a8246001856040518363ffffffff1660e01b81526004016120369291906138b9565b602060405180830381865afa158015612053573d6000803e3d6000fd5b505050506040513d601f19601f82011682018060405250810190612077919061385e565b604051632cff56fb60e11b81526001600160581b0319821660048201529091506000906001600160a01b038416906359feadf69060240160408051808303816000875af11580156120cc573d6000803e3d6000fd5b505050506040513d601f19601f820116820180604052508101906120f09190613888565b509050600081116121385760405162461bcd60e51b8152602060048201526012602482015271496e76616c6964206665656420707269636560701b6044820152606401610948565b806010856040516121499190613813565b9081526020016040518091039020819055504260118560405161216c9190613813565b9081526040519081900360200190205550505050565b60008061218e836129bc565b905060006010846040516121a29190613813565b908152602001604051809103902054905060008183116121cb576121c68383613707565b6121d5565b6121d58284613707565b90506000826121e583606461357c565b6121ef91906135a9565b600a5411159695505050505050565b600080600c60009054906101000a90046001600160a01b03166001600160a01b031663dbdff2c16040518163ffffffff1660e01b8152600401606060405180830381865afa158015612254573d6000803e3d6000fd5b505050506040513d601f19601f8201168201806040525081019061227891906138d5565b50509050600581612289919061390e565b1592915050565b6000848152600d602052604081206060916122aa87612b03565b826002016122b788612b03565b6122c088612b03565b876122eb57604051806040016040528060088152602001674e6f20426f6e757360c01b815250612311565b6040518060400160405280600c81526020016b57696e6e657220426f6e757360a01b8152505b8660010160405160200161232a96959493929190613995565b604051602081830303815290604052905061234481612b95565b6040516020016123549190613aeb565b60405160208183030381529060405292505050949350505050565b610742828260405180602001604052806000815250612bbb565b60008281526006602052604090206123a18282613746565b506040518281527ff8e1a15aba9398e019f0b49df1a4fde98ee17ae345cb5f6b5e2c27f5033e8ce79060200160405180910390a15050565b6000828152600260205260408120546001600160a01b039081169083161561240657612406818486612bd3565b6001600160a01b03811615612444576124236000856000806128b6565b6001600160a01b038116600090815260036020526040902080546000190190555b6001600160a01b03851615612473576001600160a01b0385166000908152600360205260409020805460010190555b60008481526002602052604080822080546001600160a01b0319166001600160a01b0389811691821790925591518793918516917fddf252ad1be2c89b69c2b068fc378daa952ba7f163c4a11628f55a4df523b3ef91a490505b9392505050565b6007546001600160a01b0316331461146c5760405163118cdaa760e01b8152336004820152602401610948565b600780546001600160a01b038381166001600160a01b0319831681179093556040519116919082907f8be0079c531659141344cd1fd0a4f28419497f9722a3daafe3b4186f6b6457e090600090a35050565b6001600160a01b03821661258557604051630b61174360e31b81526001600160a01b0383166004820152602401610948565b6001600160a01b03838116600081815260056020908152604080832094871680845294825291829020805460ff191686151590811790915591519182527f17307eab39ab6107e8899845ad3d59bd9653f200f220920489ca2b5937696c31910160405180910390a3505050565b6001600160a01b0383163b1561271657604051630a85bd0160e11b81526001600160a01b0384169063150b7a0290612634908890889087908790600401613b30565b6020604051808303816000875af192505050801561266f575060408051601f3d908101601f1916820190925261266c91810190613b6d565b60015b6126d8573d80801561269d576040519150601f19603f3d011682016040523d82523d6000602084013e6126a2565b606091505b5080516000036126d057604051633250574960e11b81526001600160a01b0385166004820152602401610948565b805181602001fd5b6001600160e01b03198116630a85bd0160e11b1461271457604051633250574960e11b81526001600160a01b0385166004820152602401610948565b505b5050505050565b606061272882611f86565b50600061274060408051602081019091526000815290565b9050600081511161276057604051806020016040528060008152506124cd565b8061276a84612b03565b60405160200161277b92919061382f565b6040516020818303038152906040529392505050565b600073ad67fe66660fb8dfe9d6b1b4240d8650e30f60196001600160a01b031663159354a26040516020016127e090602080825260069082015265233a39b7ab1960d11b604082015260600190565b604051602081830303815290604052805190602001206040518263ffffffff1660e01b815260040161281491815260200190565b602060405180830381865afa158015612831573d6000803e3d6000fd5b505050506040513d601f19601f820116820180604052508101906128559190613b8a565b905090565b600073ad67fe66660fb8dfe9d6b1b4240d8650e30f60196001600160a01b031663159354a26040516020016127e090602080825260139082015272233a39b7a332b2b224b221b7b73b32b93a32b960691b604082015260600190565b80806128ca57506001600160a01b03821615155b1561298c5760006128da84611f86565b90506001600160a01b038316158015906129065750826001600160a01b0316816001600160a01b031614155b801561291957506129178184611eca565b155b156129425760405163a9fbf51f60e01b81526001600160a01b0384166004820152602401610948565b811561298a5783856001600160a01b0316826001600160a01b03167f8c5be1e5ebec7d5bd14f71427d1e84f3dd0314c0f7b2291e5b200ac8c7c3b92560405160405180910390a45b505b5050600090815260046020526040902080546001600160a01b0319166001600160a01b0392909216919091179055565b6000806129c7612791565b905060006129d361285a565b6001600160a01b031663f8b7a8246001866040518363ffffffff1660e01b8152600401612a019291906138b9565b602060405180830381865afa158015612a1e573d6000803e3d6000fd5b505050506040513d601f19601f82011682018060405250810190612a42919061385e565b604051632cff56fb60e11b81526001600160581b0319821660048201529091506000906001600160a01b038416906359feadf69060240160408051808303816000875af1158015612a97573d6000803e3d6000fd5b505050506040513d601f19601f82011682018060405250810190612abb9190613888565b509050600081116117695760405162461bcd60e51b8152602060048201526012602482015271496e76616c6964204654534f20707269636560701b6044820152606401610948565b60606000612b1083612c37565b60010190506000816001600160401b03811115612b2f57612b2f61327d565b6040519080825280601f01601f191660200182016040528015612b59576020820181803683370190505b5090508181016020015b600019016f181899199a1a9b1b9c1cb0b131b232b360811b600a86061a8153600a8504945084612b6357509392505050565b606061067682604051806060016040528060408152602001613ba8604091396001612d0f565b612bc58383612e8e565b6113403360008585856125f2565b612bde838383612ef3565b611340576001600160a01b038316612c0c57604051637e27328960e01b815260048101829052602401610948565b60405163177e802f60e01b81526001600160a01b038316600482015260248101829052604401610948565b60008072184f03e93ff9f4daa797ed6e38ed64bf6a1f0160401b8310612c765772184f03e93ff9f4daa797ed6e38ed64bf6a1f0160401b830492506040015b6d04ee2d6d415b85acef81000000008310612ca2576d04ee2d6d415b85acef8100000000830492506020015b662386f26fc100008310612cc057662386f26fc10000830492506010015b6305f5e1008310612cd8576305f5e100830492506008015b6127108310612cec57612710830492506004015b60648310612cfe576064830492506002015b600a83106106765760010192915050565b60608351600003612d2f57506040805160208101909152600081526124cd565b600082612d6057600385516004612d46919061357c565b612d51906002613733565b612d5b91906135a9565b612d85565b600385516002612d709190613733565b612d7a91906135a9565b612d8590600461357c565b90506000816001600160401b03811115612da157612da161327d565b6040519080825280601f01601f191660200182016040528015612dcb576020820181803683370190505b50905060018501602082018788518901602081018051600082525b82841015612e41576003840193508351603f8160121c168701518653600186019550603f81600c1c168701518653600186019550603f8160061c168701518653600186019550603f8116870151865350600185019450612de6565b905250508515612e8257600388510660018114612e655760028114612e7857612e80565b603d6001830353603d6002830353612e80565b603d60018303535b505b50909695505050505050565b6001600160a01b038216612eb857604051633250574960e11b815260006004820152602401610948565b6000612ec6838360006123d9565b90506001600160a01b03811615611340576040516339e3563760e11b815260006004820152602401610948565b60006001600160a01b038316158015906117695750826001600160a01b0316846001600160a01b03161480612f2d5750612f2d8484611eca565b806117695750506000908152600460205260409020546001600160a01b03908116911614919050565b60405180610140016040528060006001600160a01b03168152602001606081526020016060815260200160006001600160a01b03168152602001600060070b8152602001600060070b81526020016000815260200160008152602001600081526020016000151581525090565b6001600160e01b031981168114611f3357600080fd5b600060208284031215612feb57600080fd5b81356124cd81612fc3565b60005b83811015613011578181015183820152602001612ff9565b50506000910152565b60008151808452613032816020860160208601612ff6565b601f01601f19169290920160200192915050565b6020815260006124cd602083018461301a565b60006020828403121561306b57600080fd5b5035919050565b6001600160a01b0381168114611f3357600080fd5b6000806040838503121561309a57600080fd5b82356130a581613072565b946020939093013593505050565b6001600160a01b038b81168252610140602083018190526000916130d98483018e61301a565b915083820360408501526130ed828d61301a565b9a1660608401525050600796870b60808201529490950b60a085015260c084019290925260e0830152610100820152901515610120909101529392505050565b600060208083018184528085518083526040925060408601915060408160051b87010184880160005b8381101561322e57888303603f19018552815180516001600160a01b0316845261014088820151818a87015261318e8287018261301a565b91505087820151858203898701526131a6828261301a565b9150506060808301516131c3828801826001600160a01b03169052565b50506080808301516131d98288018260070b9052565b505060a0808301516131ef8288018260070b9052565b505060c0828101519086015260e08083015190860152610100808301519086015261012091820151151591909401529386019390860190600101613156565b509098975050505050505050565b60008060006060848603121561325157600080fd5b833561325c81613072565b9250602084013561326c81613072565b929592945050506040919091013590565b634e487b7160e01b600052604160045260246000fd5b60006001600160401b03808411156132ad576132ad61327d565b604051601f8501601f19908116603f011681019082821181831017156132d5576132d561327d565b816040528093508581528686860111156132ee57600080fd5b858560208301376000602087830101525050509392505050565b600082601f83011261331957600080fd5b6124cd83833560208501613293565b600080600080600060a0868803121561334057600080fd5b85358060070b811461335157600080fd5b94506020860135935060408601356001600160401b038082111561337457600080fd5b61338089838a01613308565b9450606088013591508082111561339657600080fd5b506133a388828901613308565b95989497509295608001359392505050565b6000602082840312156133c757600080fd5b81356124cd81613072565b6020808252825182820181905260009190848201906040850190845b81811015612e82578351835292840192918401916001016133ee565b60006020828403121561341c57600080fd5b81356001600160401b0381111561343257600080fd5b61176984828501613308565b8015158114611f3357600080fd5b6000806040838503121561345f57600080fd5b823561346a81613072565b9150602083013561347a8161343e565b809150509250929050565b6000806000806080858703121561349b57600080fd5b84356134a681613072565b935060208501356134b681613072565b92506040850135915060608501356001600160401b038111156134d857600080fd5b8501601f810187136134e957600080fd5b6134f887823560208401613293565b91505092959194509250565b6000806040838503121561351757600080fd5b823561352281613072565b9150602083013561347a81613072565b600181811c9082168061354657607f821691505b6020821081036119c757634e487b7160e01b600052602260045260246000fd5b634e487b7160e01b600052601160045260246000fd5b808202811582820484141761067657610676613566565b634e487b7160e01b600052601260045260246000fd5b6000826135b8576135b8613593565b500490565b60008160070b677fffffffffffffff81036135da576135da613566565b60010192915050565b601f821115611340576000816000526020600020601f850160051c8101602086101561360c5750805b601f850160051c820191505b8181101561271457828155600101613618565b818103613636575050565b6136408254613532565b6001600160401b038111156136575761365761327d565b61366b816136658454613532565b846135e3565b6000601f82116001811461369f57600083156136875750848201545b600019600385901b1c1916600184901b178455612716565b600085815260209020601f19841690600086815260209020845b838110156136d957828601548255600195860195909101906020016136b9565b50858310156136f75781850154600019600388901b60f8161c191681555b5050505050600190811b01905550565b8181038181111561067657610676613566565b60006001820161372c5761372c613566565b5060010190565b8082018082111561067657610676613566565b81516001600160401b0381111561375f5761375f61327d565b61376d816136658454613532565b602080601f8311600181146137a2576000841561378a5750858301515b600019600386901b1c1916600185901b178555612714565b600085815260208120601f198616915b828110156137d1578886015182559484019460019091019084016137b2565b50858210156136f757939096015160001960f8600387901b161c19169092555050600190811b01905550565b634e487b7160e01b600052603260045260246000fd5b60008251613825818460208701612ff6565b9190910192915050565b60008351613841818460208801612ff6565b835190830190613855818360208801612ff6565b01949350505050565b60006020828403121561387057600080fd5b81516001600160581b0319811681146124cd57600080fd5b6000806040838503121561389b57600080fd5b8251915060208301516001600160401b038116811461347a57600080fd5b60ff83168152604060208201526000611769604083018461301a565b6000806000606084860312156138ea57600080fd5b8351925060208401516138fc8161343e565b80925050604084015190509250925092565b60008261391d5761391d613593565b500690565b6000815461392f81613532565b60018281168015613947576001811461395c5761398b565b60ff198416875282151583028701945061398b565b8560005260208060002060005b858110156139825781548a820152908401908201613969565b50505082870194505b5050505092915050565b737b226e616d65223a22426c6f636b50617373202360601b815286516000906139c5816014850160208c01612ff6565b7f222c20226465736372697074696f6e223a224578636c757369766520616363656014918401918201526b039b9903830b9b9903337b9160a51b6034820152613a116040820189613922565b6f11161011383934b1b2a830b4b2111d1160811b81528751909150613a3d816010840160208b01612ff6565b731116101137b934b3b4b730b6283934b1b2911d1160611b601092909101918201528551613a72816024840160208a01612ff6565b6b111610113137b73ab9911d1160a11b602492909101918201528451613a9f816030840160208901612ff6565b613add613acf613ac96030848601016e1116101136b2ba30b230ba30911d1160891b8152600f0190565b87613922565b61227d60f01b815260020190565b9a9950505050505050505050565b7f646174613a6170706c69636174696f6e2f6a736f6e3b6261736536342c000000815260008251613b2381601d850160208701612ff6565b91909101601d0192915050565b6001600160a01b0385811682528416602082015260408101839052608060608201819052600090613b639083018461301a565b9695505050505050565b600060208284031215613b7f57600080fd5b81516124cd81612fc3565b600060208284031215613b9c57600080fd5b81516124cd8161307256fe4142434445464748494a4b4c4d4e4f505152535455565758595a6162636465666768696a6b6c6d6e6f707172737475767778797a303132333435363738392b2fa2646970667358221220b4774fed9909d458f1cb09b8fdd554fa9b98e804ced56e6ee97675a80d3337a364736f6c63430008190033",
  "linkReferences": {},
  "deployedLinkReferences": {}
}