{
  "_format": "hh-sol-artifact-1",
  "contractName": "BlockPass",
  "sourceName": "contracts/BlockPass.sol",
  "abi": [
    {
      "inputs": [],
      "stateMutability": "nonpayable",
      "type": "constructor"
    },
    {
      "inputs": [
        {
          "internalType": "address",
          "name": "sender",
          "type": "address"
        },
        {
          "internalType": "uint256",
          "name": "tokenId",
          "type": "uint256"
        },
        {
          "internalType": "address",
          "name": "owner",
          "type": "address"
        }
      ],
      "name": "ERC721IncorrectOwner",
      "type": "error"
    },
    {
      "inputs": [
        {
          "internalType": "address",
          "name": "operator",
          "type": "address"
        },
        {
          "internalType": "uint256",
          "name": "tokenId",
          "type": "uint256"
        }
      ],
      "name": "ERC721InsufficientApproval",
      "type": "error"
    },
    {
      "inputs": [
        {
          "internalType": "address",
          "name": "approver",
          "type": "address"
        }
      ],
      "name": "ERC721InvalidApprover",
      "type": "error"
    },
    {
      "inputs": [
        {
          "internalType": "address",
          "name": "operator",
          "type": "address"
        }
      ],
      "name": "ERC721InvalidOperator",
      "type": "error"
    },
    {
      "inputs": [
        {
          "internalType": "address",
          "name": "owner",
          "type": "address"
        }
      ],
      "name": "ERC721InvalidOwner",
      "type": "error"
    },
    {
      "inputs": [
        {
          "internalType": "address",
          "name": "receiver",
          "type": "address"
        }
      ],
      "name": "ERC721InvalidReceiver",
      "type": "error"
    },
    {
      "inputs": [
        {
          "internalType": "address",
          "name": "sender",
          "type": "address"
        }
      ],
      "name": "ERC721InvalidSender",
      "type": "error"
    },
    {
      "inputs": [
        {
          "internalType": "uint256",
          "name": "tokenId",
          "type": "uint256"
        }
      ],
      "name": "ERC721NonexistentToken",
      "type": "error"
    },
    {
      "inputs": [
        {
          "internalType": "address",
          "name": "owner",
          "type": "address"
        }
      ],
      "name": "OwnableInvalidOwner",
      "type": "error"
    },
    {
      "inputs": [
        {
          "internalType": "address",
          "name": "account",
          "type": "address"
        }
      ],
      "name": "OwnableUnauthorizedAccount",
      "type": "error"
    },
    {
      "anonymous": false,
      "inputs": [
        {
          "indexed": true,
          "internalType": "address",
          "name": "owner",
          "type": "address"
        },
        {
          "indexed": true,
          "internalType": "address",
          "name": "approved",
          "type": "address"
        },
        {
          "indexed": true,
          "internalType": "uint256",
          "name": "tokenId",
          "type": "uint256"
        }
      ],
      "name": "Approval",
      "type": "event"
    },
    {
      "anonymous": false,
      "inputs": [
        {
          "indexed": true,
          "internalType": "address",
          "name": "owner",
          "type": "address"
        },
        {
          "indexed": true,
          "internalType": "address",
          "name": "operator",
          "type": "address"
        },
        {
          "indexed": false,
          "internalType": "bool",
          "name": "approved",
          "type": "bool"
        }
      ],
      "name": "ApprovalForAll",
      "type": "event"
    },
    {
      "anonymous": false,
      "inputs": [
        {
          "indexed": false,
          "internalType": "uint256",
          "name": "_fromTokenId",
          "type": "uint256"
        },
        {
          "indexed": false,
          "internalType": "uint256",
          "name": "_toTokenId",
          "type": "uint256"
        }
      ],
      "name": "BatchMetadataUpdate",
      "type": "event"
    },
    {
      "anonymous": false,
      "inputs": [
        {
          "indexed": false,
          "internalType": "uint256",
          "name": "_tokenId",
          "type": "uint256"
        }
      ],
      "name": "MetadataUpdate",
      "type": "event"
    },
    {
      "anonymous": false,
      "inputs": [
        {
          "indexed": true,
          "internalType": "address",
          "name": "previousOwner",
          "type": "address"
        },
        {
          "indexed": true,
          "internalType": "address",
          "name": "newOwner",
          "type": "address"
        }
      ],
      "name": "OwnershipTransferred",
      "type": "event"
    },
    {
      "anonymous": false,
      "inputs": [
        {
          "indexed": true,
          "internalType": "address",
          "name": "buyer",
          "type": "address"
        },
        {
          "indexed": false,
          "internalType": "uint256",
          "name": "tokenId",
          "type": "uint256"
        },
        {
          "indexed": false,
          "internalType": "uint256",
          "name": "blockPassId",
          "type": "uint256"
        },
        {
          "indexed": false,
          "internalType": "uint256",
          "name": "pricePaid",
          "type": "uint256"
        },
        {
          "indexed": false,
          "internalType": "bool",
          "name": "bonus",
          "type": "bool"
        }
      ],
      "name": "PassBooked",
      "type": "event"
    },
    {
      "anonymous": false,
      "inputs": [
        {
          "indexed": true,
          "internalType": "address",
          "name": "from",
          "type": "address"
        },
        {
          "indexed": true,
          "internalType": "address",
          "name": "to",
          "type": "address"
        },
        {
          "indexed": true,
          "internalType": "uint256",
          "name": "tokenId",
          "type": "uint256"
        }
      ],
      "name": "Transfer",
      "type": "event"
    },
    {
      "anonymous": false,
      "inputs": [
        {
          "indexed": false,
          "internalType": "uint256",
          "name": "priceInWei",
          "type": "uint256"
        }
      ],
      "name": "USDInWei",
      "type": "event"
    },
    {
      "stateMutability": "payable",
      "type": "fallback"
    },
    {
      "inputs": [],
      "name": "allBlockPassList",
      "outputs": [
        {
          "components": [
            {
              "internalType": "uint256",
              "name": "blockPassId",
              "type": "uint256"
            },
            {
              "internalType": "uint256",
              "name": "passPriceUSD",
              "type": "uint256"
            },
            {
              "internalType": "uint256",
              "name": "start_time",
              "type": "uint256"
            },
            {
              "internalType": "uint256",
              "name": "end_time",
              "type": "uint256"
            },
            {
              "internalType": "string",
              "name": "category",
              "type": "string"
            },
            {
              "internalType": "address",
              "name": "organizer",
              "type": "address"
            },
            {
              "internalType": "uint256",
              "name": "max_passes",
              "type": "uint256"
            },
            {
              "internalType": "uint256",
              "name": "passesSold",
              "type": "uint256"
            }
          ],
          "internalType": "struct BlockPass.PassDetails[]",
          "name": "",
          "type": "tuple[]"
        }
      ],
      "stateMutability": "view",
      "type": "function"
    },
    {
      "inputs": [
        {
          "internalType": "address",
          "name": "to",
          "type": "address"
        },
        {
          "internalType": "uint256",
          "name": "tokenId",
          "type": "uint256"
        }
      ],
      "name": "approve",
      "outputs": [],
      "stateMutability": "nonpayable",
      "type": "function"
    },
    {
      "inputs": [
        {
          "internalType": "address",
          "name": "owner",
          "type": "address"
        }
      ],
      "name": "balanceOf",
      "outputs": [
        {
          "internalType": "uint256",
          "name": "",
          "type": "uint256"
        }
      ],
      "stateMutability": "view",
      "type": "function"
    },
    {
      "inputs": [
        {
          "internalType": "uint256",
          "name": "",
          "type": "uint256"
        }
      ],
      "name": "blockPassList",
      "outputs": [
        {
          "internalType": "uint256",
          "name": "blockPassId",
          "type": "uint256"
        },
        {
          "internalType": "uint256",
          "name": "passPriceUSD",
          "type": "uint256"
        },
        {
          "internalType": "uint256",
          "name": "start_time",
          "type": "uint256"
        },
        {
          "internalType": "uint256",
          "name": "end_time",
          "type": "uint256"
        },
        {
          "internalType": "string",
          "name": "category",
          "type": "string"
        },
        {
          "internalType": "address",
          "name": "organizer",
          "type": "address"
        },
        {
          "internalType": "uint256",
          "name": "max_passes",
          "type": "uint256"
        },
        {
          "internalType": "uint256",
          "name": "passesSold",
          "type": "uint256"
        }
      ],
      "stateMutability": "view",
      "type": "function"
    },
    {
      "inputs": [
        {
          "internalType": "address",
          "name": "",
          "type": "address"
        },
        {
          "internalType": "uint256",
          "name": "",
          "type": "uint256"
        }
      ],
      "name": "blockPassesBookedByUser",
      "outputs": [
        {
          "internalType": "uint256",
          "name": "blockPassId",
          "type": "uint256"
        },
        {
          "internalType": "uint256",
          "name": "passPriceUSD",
          "type": "uint256"
        },
        {
          "internalType": "uint256",
          "name": "start_time",
          "type": "uint256"
        },
        {
          "internalType": "uint256",
          "name": "end_time",
          "type": "uint256"
        },
        {
          "internalType": "string",
          "name": "category",
          "type": "string"
        },
        {
          "internalType": "address",
          "name": "organizer",
          "type": "address"
        },
        {
          "internalType": "uint256",
          "name": "max_passes",
          "type": "uint256"
        },
        {
          "internalType": "uint256",
          "name": "passesSold",
          "type": "uint256"
        }
      ],
      "stateMutability": "view",
      "type": "function"
    },
    {
      "inputs": [
        {
          "internalType": "uint256",
          "name": "usdAmount",
          "type": "uint256"
        }
      ],
      "name": "convertUsdToFLRWei",
      "outputs": [
        {
          "internalType": "uint256",
          "name": "flrPriceInWei",
          "type": "uint256"
        }
      ],
      "stateMutability": "nonpayable",
      "type": "function"
    },
    {
      "inputs": [
        {
          "internalType": "uint256",
          "name": "passPriceUSD",
          "type": "uint256"
        },
        {
          "internalType": "uint256",
          "name": "start_time",
          "type": "uint256"
        },
        {
          "internalType": "uint256",
          "name": "end_time",
          "type": "uint256"
        },
        {
          "internalType": "string",
          "name": "category",
          "type": "string"
        },
        {
          "internalType": "uint256",
          "name": "max_passes",
          "type": "uint256"
        }
      ],
      "name": "createNewPass",
      "outputs": [],
      "stateMutability": "nonpayable",
      "type": "function"
    },
    {
      "inputs": [
        {
          "internalType": "uint256",
          "name": "tokenId",
          "type": "uint256"
        }
      ],
      "name": "getApproved",
      "outputs": [
        {
          "internalType": "address",
          "name": "",
          "type": "address"
        }
      ],
      "stateMutability": "view",
      "type": "function"
    },
    {
      "inputs": [
        {
          "internalType": "string",
          "name": "category",
          "type": "string"
        }
      ],
      "name": "getByCategory",
      "outputs": [
        {
          "components": [
            {
              "internalType": "uint256",
              "name": "blockPassId",
              "type": "uint256"
            },
            {
              "internalType": "uint256",
              "name": "passPriceUSD",
              "type": "uint256"
            },
            {
              "internalType": "uint256",
              "name": "start_time",
              "type": "uint256"
            },
            {
              "internalType": "uint256",
              "name": "end_time",
              "type": "uint256"
            },
            {
              "internalType": "string",
              "name": "category",
              "type": "string"
            },
            {
              "internalType": "address",
              "name": "organizer",
              "type": "address"
            },
            {
              "internalType": "uint256",
              "name": "max_passes",
              "type": "uint256"
            },
            {
              "internalType": "uint256",
              "name": "passesSold",
              "type": "uint256"
            }
          ],
          "internalType": "struct BlockPass.PassDetails[]",
          "name": "",
          "type": "tuple[]"
        }
      ],
      "stateMutability": "view",
      "type": "function"
    },
    {
      "inputs": [
        {
          "internalType": "uint256",
          "name": "",
          "type": "uint256"
        }
      ],
      "name": "getPassById",
      "outputs": [
        {
          "internalType": "uint256",
          "name": "blockPassId",
          "type": "uint256"
        },
        {
          "internalType": "uint256",
          "name": "passPriceUSD",
          "type": "uint256"
        },
        {
          "internalType": "uint256",
          "name": "start_time",
          "type": "uint256"
        },
        {
          "internalType": "uint256",
          "name": "end_time",
          "type": "uint256"
        },
        {
          "internalType": "string",
          "name": "category",
          "type": "string"
        },
        {
          "internalType": "address",
          "name": "organizer",
          "type": "address"
        },
        {
          "internalType": "uint256",
          "name": "max_passes",
          "type": "uint256"
        },
        {
          "internalType": "uint256",
          "name": "passesSold",
          "type": "uint256"
        }
      ],
      "stateMutability": "view",
      "type": "function"
    },
    {
      "inputs": [
        {
          "internalType": "string",
          "name": "feedName",
          "type": "string"
        }
      ],
      "name": "getTokenPriceInUSDWei",
      "outputs": [
        {
          "internalType": "uint256",
          "name": "_priceInWei",
          "type": "uint256"
        },
        {
          "internalType": "uint256",
          "name": "_finalizedTimestamp",
          "type": "uint256"
        }
      ],
      "stateMutability": "nonpayable",
      "type": "function"
    },
    {
      "inputs": [
        {
          "internalType": "address",
          "name": "user",
          "type": "address"
        }
      ],
      "name": "getUserTokens",
      "outputs": [
        {
          "internalType": "uint256[]",
          "name": "",
          "type": "uint256[]"
        }
      ],
      "stateMutability": "view",
      "type": "function"
    },
    {
      "inputs": [
        {
          "internalType": "address",
          "name": "owner",
          "type": "address"
        },
        {
          "internalType": "address",
          "name": "operator",
          "type": "address"
        }
      ],
      "name": "isApprovedForAll",
      "outputs": [
        {
          "internalType": "bool",
          "name": "",
          "type": "bool"
        }
      ],
      "stateMutability": "view",
      "type": "function"
    },
    {
      "inputs": [
        {
          "internalType": "string",
          "name": "",
          "type": "string"
        }
      ],
      "name": "lastSavedPrice",
      "outputs": [
        {
          "internalType": "uint256",
          "name": "",
          "type": "uint256"
        }
      ],
      "stateMutability": "view",
      "type": "function"
    },
    {
      "inputs": [
        {
          "internalType": "string",
          "name": "",
          "type": "string"
        }
      ],
      "name": "lastSavedTimestamp",
      "outputs": [
        {
          "internalType": "uint256",
          "name": "",
          "type": "uint256"
        }
      ],
      "stateMutability": "view",
      "type": "function"
    },
    {
      "inputs": [],
      "name": "name",
      "outputs": [
        {
          "internalType": "string",
          "name": "",
          "type": "string"
        }
      ],
      "stateMutability": "view",
      "type": "function"
    },
    {
      "inputs": [],
      "name": "nextTokenId",
      "outputs": [
        {
          "internalType": "uint256",
          "name": "",
          "type": "uint256"
        }
      ],
      "stateMutability": "view",
      "type": "function"
    },
    {
      "inputs": [],
      "name": "owner",
      "outputs": [
        {
          "internalType": "address",
          "name": "",
          "type": "address"
        }
      ],
      "stateMutability": "view",
      "type": "function"
    },
    {
      "inputs": [
        {
          "internalType": "uint256",
          "name": "tokenId",
          "type": "uint256"
        }
      ],
      "name": "ownerOf",
      "outputs": [
        {
          "internalType": "address",
          "name": "",
          "type": "address"
        }
      ],
      "stateMutability": "view",
      "type": "function"
    },
    {
      "inputs": [
        {
          "internalType": "uint256",
          "name": "_blockPassId",
          "type": "uint256"
        }
      ],
      "name": "purchasePass",
      "outputs": [],
      "stateMutability": "payable",
      "type": "function"
    },
    {
      "inputs": [],
      "name": "renounceOwnership",
      "outputs": [],
      "stateMutability": "nonpayable",
      "type": "function"
    },
    {
      "inputs": [
        {
          "internalType": "address",
          "name": "from",
          "type": "address"
        },
        {
          "internalType": "address",
          "name": "to",
          "type": "address"
        },
        {
          "internalType": "uint256",
          "name": "tokenId",
          "type": "uint256"
        }
      ],
      "name": "safeTransferFrom",
      "outputs": [],
      "stateMutability": "nonpayable",
      "type": "function"
    },
    {
      "inputs": [
        {
          "internalType": "address",
          "name": "from",
          "type": "address"
        },
        {
          "internalType": "address",
          "name": "to",
          "type": "address"
        },
        {
          "internalType": "uint256",
          "name": "tokenId",
          "type": "uint256"
        },
        {
          "internalType": "bytes",
          "name": "data",
          "type": "bytes"
        }
      ],
      "name": "safeTransferFrom",
      "outputs": [],
      "stateMutability": "nonpayable",
      "type": "function"
    },
    {
      "inputs": [
        {
          "internalType": "address",
          "name": "operator",
          "type": "address"
        },
        {
          "internalType": "bool",
          "name": "approved",
          "type": "bool"
        }
      ],
      "name": "setApprovalForAll",
      "outputs": [],
      "stateMutability": "nonpayable",
      "type": "function"
    },
    {
      "inputs": [
        {
          "internalType": "uint256",
          "name": "_threshold",
          "type": "uint256"
        }
      ],
      "name": "setVolatilityThreshold",
      "outputs": [],
      "stateMutability": "nonpayable",
      "type": "function"
    },
    {
      "inputs": [
        {
          "internalType": "bytes4",
          "name": "interfaceId",
          "type": "bytes4"
        }
      ],
      "name": "supportsInterface",
      "outputs": [
        {
          "internalType": "bool",
          "name": "",
          "type": "bool"
        }
      ],
      "stateMutability": "view",
      "type": "function"
    },
    {
      "inputs": [],
      "name": "symbol",
      "outputs": [
        {
          "internalType": "string",
          "name": "",
          "type": "string"
        }
      ],
      "stateMutability": "view",
      "type": "function"
    },
    {
      "inputs": [
        {
          "internalType": "uint256",
          "name": "",
          "type": "uint256"
        }
      ],
      "name": "tokenIdToOwner",
      "outputs": [
        {
          "internalType": "address",
          "name": "",
          "type": "address"
        }
      ],
      "stateMutability": "view",
      "type": "function"
    },
    {
      "inputs": [
        {
          "internalType": "uint256",
          "name": "tokenId",
          "type": "uint256"
        }
      ],
      "name": "tokenURI",
      "outputs": [
        {
          "internalType": "string",
          "name": "",
          "type": "string"
        }
      ],
      "stateMutability": "view",
      "type": "function"
    },
    {
      "inputs": [],
      "name": "totalPasses",
      "outputs": [
        {
          "internalType": "uint256",
          "name": "",
          "type": "uint256"
        }
      ],
      "stateMutability": "view",
      "type": "function"
    },
    {
      "inputs": [
        {
          "internalType": "address",
          "name": "from",
          "type": "address"
        },
        {
          "internalType": "address",
          "name": "to",
          "type": "address"
        },
        {
          "internalType": "uint256",
          "name": "tokenId",
          "type": "uint256"
        }
      ],
      "name": "transferFrom",
      "outputs": [],
      "stateMutability": "nonpayable",
      "type": "function"
    },
    {
      "inputs": [
        {
          "internalType": "address",
          "name": "newOwner",
          "type": "address"
        }
      ],
      "name": "transferOwnership",
      "outputs": [],
      "stateMutability": "nonpayable",
      "type": "function"
    },
    {
      "inputs": [],
      "name": "volatilityThreshold",
      "outputs": [
        {
          "internalType": "uint256",
          "name": "",
          "type": "uint256"
        }
      ],
      "stateMutability": "view",
      "type": "function"
    },
    {
      "stateMutability": "payable",
      "type": "receive"
    }
  ],
  "bytecode": "0x6080604052600a805534801561001457600080fd5b503360405180604001604052806009815260200168426c6f636b5061737360b81b81525060405180604001604052806005815260200164425041535360d81b8152508160009081610065919061029e565b506001610072828261029e565b5050506001600160a01b0381166100a357604051631e4fbdf760e01b81526000600482015260240160405180910390fd5b6100ac816100da565b506100b561012c565b600b80546001600160a01b0319166001600160a01b039290921691909117905561038d565b600780546001600160a01b038381166001600160a01b0319831681179093556040519116919082907f8be0079c531659141344cd1fd0a4f28419497f9722a3daafe3b4186f6b6457e090600090a35050565b600073ad67fe66660fb8dfe9d6b1b4240d8650e30f60196001600160a01b031663159354a2604051602001610183906020808252600e908201526d2930b73237b6a73ab6b132b92b1960911b604082015260600190565b604051602081830303815290604052805190602001206040518263ffffffff1660e01b81526004016101b791815260200190565b602060405180830381865afa1580156101d4573d6000803e3d6000fd5b505050506040513d601f19601f820116820180604052508101906101f8919061035d565b905090565b634e487b7160e01b600052604160045260246000fd5b600181811c9082168061022757607f821691505b60208210810361024757634e487b7160e01b600052602260045260246000fd5b50919050565b601f821115610299576000816000526020600020601f850160051c810160208610156102765750805b601f850160051c820191505b8181101561029557828155600101610282565b5050505b505050565b81516001600160401b038111156102b7576102b76101fd565b6102cb816102c58454610213565b8461024d565b602080601f83116001811461030057600084156102e85750858301515b600019600386901b1c1916600185901b178555610295565b600085815260208120601f198616915b8281101561032f57888601518255948401946001909101908401610310565b508582101561034d5787850151600019600388901b60f8161c191681555b5050505050600190811b01905550565b60006020828403121561036f57600080fd5b81516001600160a01b038116811461038657600080fd5b9392505050565b6136888061039c6000396000f3fe6080604052600436106101da5760003560e01c8063715018a611610101578063a22cb4651161009a578063e02b13bf1161006c578063e02b13bf146105e5578063e985e9c5146105fb578063f2fde38b1461061b578063f579d2121461063b578063fc6a54da1461065b57005b8063a22cb46514610565578063b88d4fde14610585578063c87b56dd146105a5578063d1d73635146105c557005b80638ea6b9c8116100d35780638ea6b9c8146104fa57806395d89b411461051a57806397f5e0981461052f5780639fe88c841461054f57005b8063715018a61461047957806375794a3c1461048e5780637db75772146104a45780638da5cb5b146104dc57005b806342842e0e116101735780636e9e48ef116101455780636e9e48ef146103a85780636f323d11146103de578063704423741461042457806370a082311461045957005b806342842e0e1461031b57806347a9ec571461033b578063519dc8d21461035b5780636352211e1461038857005b806314462eda116101ac57806314462eda146102925780631be59b75146102a557806323b872dd146102c757806336a5af0d146102e757005b806301ffc9a7146101e357806306fdde0314610218578063081812fc1461023a578063095ea7b31461027257005b366101e157005b005b3480156101ef57600080fd5b506102036101fe366004612abb565b61067b565b60405190151581526020015b60405180910390f35b34801561022457600080fd5b5061022d6106a6565b60405161020f9190612b28565b34801561024657600080fd5b5061025a610255366004612b3b565b610738565b6040516001600160a01b03909116815260200161020f565b34801561027e57600080fd5b506101e161028d366004612b69565b610761565b6101e16102a0366004612b3b565b610770565b3480156102b157600080fd5b506102ba610be8565b60405161020f9190612b95565b3480156102d357600080fd5b506101e16102e2366004612c56565b610d2f565b3480156102f357600080fd5b50610307610302366004612b3b565b610dba565b60405161020f989796959493929190612c97565b34801561032757600080fd5b506101e1610336366004612c56565b610ea6565b34801561034757600080fd5b50610307610356366004612b3b565b610ec6565b34801561036757600080fd5b5061037b610376366004612ced565b610efc565b60405161020f9190612d0a565b34801561039457600080fd5b5061025a6103a3366004612b3b565b610ff7565b3480156103b457600080fd5b5061025a6103c3366004612b3b565b600f602052600090815260409020546001600160a01b031681565b3480156103ea57600080fd5b506104166103f9366004612dee565b805160208183018101805160108252928201919093012091525481565b60405190815260200161020f565b34801561043057600080fd5b5061044461043f366004612dee565b611002565b6040805192835260208301919091520161020f565b34801561046557600080fd5b50610416610474366004612ced565b611117565b34801561048557600080fd5b506101e161115f565b34801561049a57600080fd5b5061041660095481565b3480156104b057600080fd5b506104166104bf366004612dee565b805160208183018101805160118252928201919093012091525481565b3480156104e857600080fd5b506007546001600160a01b031661025a565b34801561050657600080fd5b506102ba610515366004612dee565b611173565b34801561052657600080fd5b5061022d611414565b34801561053b57600080fd5b5061030761054a366004612b69565b611423565b34801561055b57600080fd5b50610416600a5481565b34801561057157600080fd5b506101e1610580366004612e31565b61147b565b34801561059157600080fd5b506101e16105a0366004612e6a565b611486565b3480156105b157600080fd5b5061022d6105c0366004612b3b565b61149e565b3480156105d157600080fd5b506101e16105e0366004612b3b565b6115af565b3480156105f157600080fd5b5061041660085481565b34801561060757600080fd5b50610203610616366004612eea565b6115bc565b34801561062757600080fd5b506101e1610636366004612ced565b6115ea565b34801561064757600080fd5b506101e1610656366004612f18565b611628565b34801561066757600080fd5b50610416610676366004612b3b565b61186e565b60006001600160e01b03198216632483248360e11b14806106a057506106a082611a2a565b92915050565b6060600080546106b590612f7a565b80601f01602080910402602001604051908101604052809291908181526020018280546106e190612f7a565b801561072e5780601f106107035761010080835404028352916020019161072e565b820191906000526020600020905b81548152906001019060200180831161071157829003601f168201915b5050505050905090565b600061074382611a7a565b506000828152600460205260409020546001600160a01b03166106a0565b61076c828233611ab3565b5050565b6000818152600c6020526040902060028101544210801590610796575080600301544211155b6107e05760405162461bcd60e51b81526020600482015260166024820152754e6f742077697468696e2073616c652077696e646f7760501b60448201526064015b60405180910390fd5b80600601548160070154106108225760405162461bcd60e51b815260206004820152600860248201526714dbdb19081bdd5d60c21b60448201526064016107d7565b61084a604051806040016040528060078152602001661193148bd554d160ca1b815250611ac0565b6000610859826001015461186e565b90506000819050610888604051806040016040528060078152602001661193148bd554d160ca1b815250611c76565b156108a757606461089a83605a612fca565b6108a49190612ff7565b90505b803410156108f75760405162461bcd60e51b815260206004820152601860248201527f496e73756666696369656e7420464c52207061796d656e74000000000000000060448201526064016107d7565b6000610901611cf2565b905060006109ff85604051806101000160405290816000820154815260200160018201548152602001600282015481526020016003820154815260200160048201805461094d90612f7a565b80601f016020809104026020016040519081016040528092919081815260200182805461097990612f7a565b80156109c65780601f1061099b576101008083540402835291602001916109c6565b820191906000526020600020905b8154815290600101906020018083116109a957829003601f168201915b505050918352505060058201546001600160a01b0316602082015260068201546040820152600790910154606090910152848685611d84565b9050610a0d33600954611ebc565b610a1960095482611ed6565b6009546000908152600f6020908152604080832080546001600160a01b031916339081179091558352600e82528220805460018181018355918452919092208754600890920201908155868201549181019190915560028087015490820155600380870154908201558590600480820190610a9690840182613053565b5060058281015490820180546001600160a01b0319166001600160a01b03909216919091179055600680830154908201556007918201549082015585018054906000610ae183613130565b909155505060095460408051918252602082018890528101849052821515606082015233907f04c187a82deb356951ad6996d4227a1f52971a75d228abd4a7a8da26da0de2199060800160405180910390a260006064610b4285605a612fca565b610b4c9190612ff7565b60058701546040519192506001600160a01b03169082156108fc029083906000818181858888f19350505050158015610b89573d6000803e3d6000fd5b5083341115610bca57336108fc610ba08634613149565b6040518115909202916000818181858888f19350505050158015610bc8573d6000803e3d6000fd5b505b60098054906000610bda83613130565b919050555050505050505050565b6060600d805480602002602001604051908101604052809291908181526020016000905b82821015610d2657838290600052602060002090600802016040518061010001604052908160008201548152602001600182015481526020016002820154815260200160038201548152602001600482018054610c6890612f7a565b80601f0160208091040260200160405190810160405280929190818152602001828054610c9490612f7a565b8015610ce15780601f10610cb657610100808354040283529160200191610ce1565b820191906000526020600020905b815481529060010190602001808311610cc457829003601f168201915b505050918352505060058201546001600160a01b0316602080830191909152600683015460408301526007909201546060909101529082526001929092019101610c0c565b50505050905090565b6001600160a01b038216610d5957604051633250574960e11b8152600060048201526024016107d7565b6000610d66838333611f26565b9050836001600160a01b0316816001600160a01b031614610db4576040516364283d7b60e01b81526001600160a01b03808616600483015260248201849052821660448201526064016107d7565b50505050565b600d8181548110610dca57600080fd5b9060005260206000209060080201600091509050806000015490806001015490806002015490806003015490806004018054610e0590612f7a565b80601f0160208091040260200160405190810160405280929190818152602001828054610e3190612f7a565b8015610e7e5780601f10610e5357610100808354040283529160200191610e7e565b820191906000526020600020905b815481529060010190602001808311610e6157829003601f168201915b505050506005830154600684015460079094015492936001600160a01b039091169290915088565b610ec183838360405180602001604052806000815250611486565b505050565b600c60205260009081526040902080546001820154600283015460038401546004850180549495939492939192610e0590612f7a565b60606000805b600954811015610f43576000818152600f60205260409020546001600160a01b03808616911603610f3b5781610f3781613130565b9250505b600101610f02565b5060008167ffffffffffffffff811115610f5f57610f5f612d42565b604051908082528060200260200182016040528015610f88578160200160208202803683370190505b5090506000805b600954811015610fed576000818152600f60205260409020546001600160a01b03808816911603610fe557808383610fc681613130565b945081518110610fd857610fd861315c565b6020026020010181815250505b600101610f8f565b5090949350505050565b60006106a082611a7a565b600080600061100f612021565b9050806001600160a01b03166359feadf66110286120ea565b6001600160a01b031663f8b7a8246001886040518363ffffffff1660e01b8152600401611056929190613172565b602060405180830381865afa158015611073573d6000803e3d6000fd5b505050506040513d601f19601f82011682018060405250810190611097919061318e565b6040516001600160e01b031960e084901b1681526001600160581b0319909116600482015260240160408051808303816000875af11580156110dd573d6000803e3d6000fd5b505050506040513d601f19601f8201168201806040525081019061110191906131b8565b909567ffffffffffffffff909116945092505050565b60006001600160a01b038216611143576040516322718ad960e21b8152600060048201526024016107d7565b506001600160a01b031660009081526003602052604090205490565b611167612146565b6111716000612173565b565b60606000805b600d548110156111df578380519060200120600d828154811061119e5761119e61315c565b90600052602060002090600802016004016040516111bc91906131ea565b6040518091039020036111d757816111d381613130565b9250505b600101611179565b5060008167ffffffffffffffff8111156111fb576111fb612d42565b60405190808252806020026020018201604052801561127d57816020015b61126a604051806101000160405280600081526020016000815260200160008152602001600081526020016060815260200160006001600160a01b0316815260200160008152602001600081525090565b8152602001906001900390816112195790505b5090506000805b600d54811015610fed578580519060200120600d82815481106112a9576112a961315c565b90600052602060002090600802016004016040516112c791906131ea565b60405180910390200361140c57600d81815481106112e7576112e761315c565b9060005260206000209060080201604051806101000160405290816000820154815260200160018201548152602001600282015481526020016003820154815260200160048201805461133990612f7a565b80601f016020809104026020016040519081016040528092919081815260200182805461136590612f7a565b80156113b25780601f10611387576101008083540402835291602001916113b2565b820191906000526020600020905b81548152906001019060200180831161139557829003601f168201915b505050918352505060058201546001600160a01b031660208201526006820154604082015260079091015460609091015283836113ee81613130565b9450815181106114005761140061315c565b60200260200101819052505b600101611284565b6060600180546106b590612f7a565b600e602052816000526040600020818154811061143f57600080fd5b906000526020600020906008020160009150915050806000015490806001015490806002015490806003015490806004018054610e0590612f7a565b61076c3383836121c5565b611491848484610d2f565b610db43385858585612264565b60606114a982611a7a565b50600082815260066020526040812080546114c390612f7a565b80601f01602080910402602001604051908101604052809291908181526020018280546114ef90612f7a565b801561153c5780601f106115115761010080835404028352916020019161153c565b820191906000526020600020905b81548152906001019060200180831161151f57829003601f168201915b50505050509050600061155a60408051602081019091526000815290565b9050805160000361156c575092915050565b81511561159e57808260405160200161158692919061327c565b60405160208183030381529060405292505050919050565b6115a78461238f565b949350505050565b6115b7612146565b600a55565b6001600160a01b03918216600090815260056020908152604080832093909416825291909152205460ff1690565b6115f2612146565b6001600160a01b03811661161c57604051631e4fbdf760e01b8152600060048201526024016107d7565b61162581612173565b50565b82841061166d5760405162461bcd60e51b8152602060048201526013602482015272496e76616c69642074696d652077696e646f7760681b60448201526064016107d7565b6040805161010081018252600854808252602080830189815283850189815260608501898152608086018981523360a088015260c08701899052600060e08801819052958652600c909452959093208451815590516001820155915160028301559251600382015591519091829160048201906116ea90826132ab565b5060a08201516005820180546001600160a01b0319166001600160a01b0390921691909117905560c0820151600682015560e090910151600790910155600d805460018101825560009190915281517fd7b6990105719101dabeb77144f2a3385c8033acd3af97e9423a695e81ad1eb5600890920291820190815560208301517fd7b6990105719101dabeb77144f2a3385c8033acd3af97e9423a695e81ad1eb683015560408301517fd7b6990105719101dabeb77144f2a3385c8033acd3af97e9423a695e81ad1eb783015560608301517fd7b6990105719101dabeb77144f2a3385c8033acd3af97e9423a695e81ad1eb8830155608083015183927fd7b6990105719101dabeb77144f2a3385c8033acd3af97e9423a695e81ad1eb9019061181490826132ab565b5060a08201516005820180546001600160a01b0319166001600160a01b0390921691909117905560c0820151600682015560e0909101516007909101556008805490600061186183613130565b9190505550505050505050565b600080611879612021565b905060006118856120ea565b60408051633e2dea0960e21b815260016004820152602481019190915260076044820152661193148bd554d160ca1b60648201526001600160a01b03919091169063f8b7a82490608401602060405180830381865afa1580156118ec573d6000803e3d6000fd5b505050506040513d601f19601f82011682018060405250810190611910919061318e565b604051632cff56fb60e11b81526001600160581b0319821660048201529091506001600160a01b038316906359feadf69060240160408051808303816000875af1158015611962573d6000803e3d6000fd5b505050506040513d601f19601f8201168201806040525081019061198691906131b8565b509250826119cb5760405162461bcd60e51b8152602060048201526012602482015271496e76616c6964204654534f20707269636560701b60448201526064016107d7565b826119de85670de0b6b3a7640000612fca565b6119e89190612ff7565b92507f186388859642f2fd96e5dd89f690b2e28d22af47d2d3e29e8c82a8be57db299483604051611a1b91815260200190565b60405180910390a15050919050565b60006001600160e01b031982166380ac58cd60e01b1480611a5b57506001600160e01b03198216635b5e139f60e01b145b806106a057506301ffc9a760e01b6001600160e01b03198316146106a0565b6000818152600260205260408120546001600160a01b0316806106a057604051637e27328960e01b8152600481018490526024016107d7565b610ec18383836001612403565b601081604051611ad09190613363565b908152602001604051809103902054600003611625576000611af0612021565b90506000611afc6120ea565b6001600160a01b031663f8b7a8246001856040518363ffffffff1660e01b8152600401611b2a929190613172565b602060405180830381865afa158015611b47573d6000803e3d6000fd5b505050506040513d601f19601f82011682018060405250810190611b6b919061318e565b604051632cff56fb60e11b81526001600160581b0319821660048201529091506000906001600160a01b038416906359feadf69060240160408051808303816000875af1158015611bc0573d6000803e3d6000fd5b505050506040513d601f19601f82011682018060405250810190611be491906131b8565b50905060008111611c2c5760405162461bcd60e51b8152602060048201526012602482015271496e76616c6964206665656420707269636560701b60448201526064016107d7565b80601085604051611c3d9190613363565b90815260200160405180910390208190555042601185604051611c609190613363565b9081526040519081900360200190205550505050565b600080611c8283612509565b90506000601084604051611c969190613363565b90815260200160405180910390205490506000818311611cbf57611cba8383613149565b611cc9565b611cc98284613149565b9050600082611cd9836064612fca565b611ce39190612ff7565b600a5411159695505050505050565b600080600b60009054906101000a90046001600160a01b03166001600160a01b031663dbdff2c16040518163ffffffff1660e01b8152600401606060405180830381865afa158015611d48573d6000803e3d6000fd5b505050506040513d601f19601f82011682018060405250810190611d6c919061337f565b50509050600581611d7d91906133b8565b1592915050565b60606000611d958660000151612650565b8660800151611da387612650565b611dac87612650565b86611ddc576040518060400160405280600d81526020016c4e6f20426f6e7573205065726b60981b815250611e08565b604051806040016040528060128152602001712137b73ab9902832b9359d102ba4a72722a960711b8152505b888a10611e38576040518060400160405280600b81526020016a139bc8191a5cd8dbdd5b9d60aa1b815250611e63565b60405180604001604052806011815260200170446973636f756e74206170706c6965642160781b8152505b604051602001611e78969594939291906133cc565b6040516020818303038152906040529050611e92816126e3565b604051602001611ea29190613543565b604051602081830303815290604052915050949350505050565b61076c828260405180602001604052806000815250612709565b6000828152600660205260409020611eee82826132ab565b506040518281527ff8e1a15aba9398e019f0b49df1a4fde98ee17ae345cb5f6b5e2c27f5033e8ce79060200160405180910390a15050565b6000828152600260205260408120546001600160a01b0390811690831615611f5357611f53818486612721565b6001600160a01b03811615611f9157611f70600085600080612403565b6001600160a01b038116600090815260036020526040902080546000190190555b6001600160a01b03851615611fc0576001600160a01b0385166000908152600360205260409020805460010190555b60008481526002602052604080822080546001600160a01b0319166001600160a01b0389811691821790925591518793918516917fddf252ad1be2c89b69c2b068fc378daa952ba7f163c4a11628f55a4df523b3ef91a490505b9392505050565b600073ad67fe66660fb8dfe9d6b1b4240d8650e30f60196001600160a01b031663159354a260405160200161207090602080825260069082015265233a39b7ab1960d11b604082015260600190565b604051602081830303815290604052805190602001206040518263ffffffff1660e01b81526004016120a491815260200190565b602060405180830381865afa1580156120c1573d6000803e3d6000fd5b505050506040513d601f19601f820116820180604052508101906120e59190613588565b905090565b600073ad67fe66660fb8dfe9d6b1b4240d8650e30f60196001600160a01b031663159354a260405160200161207090602080825260139082015272233a39b7a332b2b224b221b7b73b32b93a32b960691b604082015260600190565b6007546001600160a01b031633146111715760405163118cdaa760e01b81523360048201526024016107d7565b600780546001600160a01b038381166001600160a01b0319831681179093556040519116919082907f8be0079c531659141344cd1fd0a4f28419497f9722a3daafe3b4186f6b6457e090600090a35050565b6001600160a01b0382166121f757604051630b61174360e31b81526001600160a01b03831660048201526024016107d7565b6001600160a01b03838116600081815260056020908152604080832094871680845294825291829020805460ff191686151590811790915591519182527f17307eab39ab6107e8899845ad3d59bd9653f200f220920489ca2b5937696c31910160405180910390a3505050565b6001600160a01b0383163b1561238857604051630a85bd0160e11b81526001600160a01b0384169063150b7a02906122a69088908890879087906004016135a5565b6020604051808303816000875af19250505080156122e1575060408051601f3d908101601f191682019092526122de918101906135e2565b60015b61234a573d80801561230f576040519150601f19603f3d011682016040523d82523d6000602084013e612314565b606091505b50805160000361234257604051633250574960e11b81526001600160a01b03851660048201526024016107d7565b805181602001fd5b6001600160e01b03198116630a85bd0160e11b1461238657604051633250574960e11b81526001600160a01b03851660048201526024016107d7565b505b5050505050565b606061239a82611a7a565b5060006123b260408051602081019091526000815290565b905060008151116123d2576040518060200160405280600081525061201a565b806123dc84612650565b6040516020016123ed92919061327c565b6040516020818303038152906040529392505050565b808061241757506001600160a01b03821615155b156124d957600061242784611a7a565b90506001600160a01b038316158015906124535750826001600160a01b0316816001600160a01b031614155b8015612466575061246481846115bc565b155b1561248f5760405163a9fbf51f60e01b81526001600160a01b03841660048201526024016107d7565b81156124d75783856001600160a01b0316826001600160a01b03167f8c5be1e5ebec7d5bd14f71427d1e84f3dd0314c0f7b2291e5b200ac8c7c3b92560405160405180910390a45b505b5050600090815260046020526040902080546001600160a01b0319166001600160a01b0392909216919091179055565b600080612514612021565b905060006125206120ea565b6001600160a01b031663f8b7a8246001866040518363ffffffff1660e01b815260040161254e929190613172565b602060405180830381865afa15801561256b573d6000803e3d6000fd5b505050506040513d601f19601f8201168201806040525081019061258f919061318e565b604051632cff56fb60e11b81526001600160581b0319821660048201529091506000906001600160a01b038416906359feadf69060240160408051808303816000875af11580156125e4573d6000803e3d6000fd5b505050506040513d601f19601f8201168201806040525081019061260891906131b8565b509050600081116115a75760405162461bcd60e51b8152602060048201526012602482015271496e76616c6964204654534f20707269636560701b60448201526064016107d7565b6060600061265d83612785565b600101905060008167ffffffffffffffff81111561267d5761267d612d42565b6040519080825280601f01601f1916602001820160405280156126a7576020820181803683370190505b5090508181016020015b600019016f181899199a1a9b1b9c1cb0b131b232b360811b600a86061a8153600a85049450846126b157509392505050565b60606106a08260405180606001604052806040815260200161361360409139600161285d565b61271383836129dd565b610ec1336000858585612264565b61272c838383612a42565b610ec1576001600160a01b03831661275a57604051637e27328960e01b8152600481018290526024016107d7565b60405163177e802f60e01b81526001600160a01b0383166004820152602481018290526044016107d7565b60008072184f03e93ff9f4daa797ed6e38ed64bf6a1f0160401b83106127c45772184f03e93ff9f4daa797ed6e38ed64bf6a1f0160401b830492506040015b6d04ee2d6d415b85acef810000000083106127f0576d04ee2d6d415b85acef8100000000830492506020015b662386f26fc10000831061280e57662386f26fc10000830492506010015b6305f5e1008310612826576305f5e100830492506008015b612710831061283a57612710830492506004015b6064831061284c576064830492506002015b600a83106106a05760010192915050565b6060835160000361287d575060408051602081019091526000815261201a565b6000826128ae576003855160046128949190612fca565b61289f9060026135ff565b6128a99190612ff7565b6128d3565b6003855160026128be91906135ff565b6128c89190612ff7565b6128d3906004612fca565b905060008167ffffffffffffffff8111156128f0576128f0612d42565b6040519080825280601f01601f19166020018201604052801561291a576020820181803683370190505b50905060018501602082018788518901602081018051600082525b82841015612990576003840193508351603f8160121c168701518653600186019550603f81600c1c168701518653600186019550603f8160061c168701518653600186019550603f8116870151865350600185019450612935565b9052505085156129d1576003885106600181146129b457600281146129c7576129cf565b603d6001830353603d60028303536129cf565b603d60018303535b505b50909695505050505050565b6001600160a01b038216612a0757604051633250574960e11b8152600060048201526024016107d7565b6000612a1583836000611f26565b90506001600160a01b03811615610ec1576040516339e3563760e11b8152600060048201526024016107d7565b60006001600160a01b038316158015906115a75750826001600160a01b0316846001600160a01b03161480612a7c5750612a7c84846115bc565b806115a75750506000908152600460205260409020546001600160a01b03908116911614919050565b6001600160e01b03198116811461162557600080fd5b600060208284031215612acd57600080fd5b813561201a81612aa5565b60005b83811015612af3578181015183820152602001612adb565b50506000910152565b60008151808452612b14816020860160208601612ad8565b601f01601f19169290920160200192915050565b60208152600061201a6020830184612afc565b600060208284031215612b4d57600080fd5b5035919050565b6001600160a01b038116811461162557600080fd5b60008060408385031215612b7c57600080fd5b8235612b8781612b54565b946020939093013593505050565b600060208083018184528085518083526040925060408601915060408160051b87010184880160005b83811015612c4857603f198984030185528151610100815185528882015189860152878201518886015260608083015181870152506080808301518282880152612c0a83880182612afc565b60a0858101516001600160a01b03169089015260c0808601519089015260e09485015194909701939093525050509386019390860190600101612bbe565b509098975050505050505050565b600080600060608486031215612c6b57600080fd5b8335612c7681612b54565b92506020840135612c8681612b54565b929592945050506040919091013590565b60006101008a8352896020840152886040840152876060840152806080840152612cc381840188612afc565b6001600160a01b039690961660a0840152505060c081019290925260e09091015295945050505050565b600060208284031215612cff57600080fd5b813561201a81612b54565b6020808252825182820181905260009190848201906040850190845b818110156129d157835183529284019291840191600101612d26565b634e487b7160e01b600052604160045260246000fd5b600067ffffffffffffffff80841115612d7357612d73612d42565b604051601f8501601f19908116603f01168101908282118183101715612d9b57612d9b612d42565b81604052809350858152868686011115612db457600080fd5b858560208301376000602087830101525050509392505050565b600082601f830112612ddf57600080fd5b61201a83833560208501612d58565b600060208284031215612e0057600080fd5b813567ffffffffffffffff811115612e1757600080fd5b6115a784828501612dce565b801515811461162557600080fd5b60008060408385031215612e4457600080fd5b8235612e4f81612b54565b91506020830135612e5f81612e23565b809150509250929050565b60008060008060808587031215612e8057600080fd5b8435612e8b81612b54565b93506020850135612e9b81612b54565b925060408501359150606085013567ffffffffffffffff811115612ebe57600080fd5b8501601f81018713612ecf57600080fd5b612ede87823560208401612d58565b91505092959194509250565b60008060408385031215612efd57600080fd5b8235612f0881612b54565b91506020830135612e5f81612b54565b600080600080600060a08688031215612f3057600080fd5b853594506020860135935060408601359250606086013567ffffffffffffffff811115612f5c57600080fd5b612f6888828901612dce565b95989497509295608001359392505050565b600181811c90821680612f8e57607f821691505b602082108103612fae57634e487b7160e01b600052602260045260246000fd5b50919050565b634e487b7160e01b600052601160045260246000fd5b80820281158282048414176106a0576106a0612fb4565b634e487b7160e01b600052601260045260246000fd5b60008261300657613006612fe1565b500490565b601f821115610ec1576000816000526020600020601f850160051c810160208610156130345750805b601f850160051c820191505b8181101561238657828155600101613040565b81810361305e575050565b6130688254612f7a565b67ffffffffffffffff81111561308057613080612d42565b6130948161308e8454612f7a565b8461300b565b6000601f8211600181146130c857600083156130b05750848201545b600019600385901b1c1916600184901b178455612388565b600085815260209020601f19841690600086815260209020845b8381101561310257828601548255600195860195909101906020016130e2565b50858310156131205781850154600019600388901b60f8161c191681555b5050505050600190811b01905550565b60006001820161314257613142612fb4565b5060010190565b818103818111156106a0576106a0612fb4565b634e487b7160e01b600052603260045260246000fd5b60ff831681526040602082015260006115a76040830184612afc565b6000602082840312156131a057600080fd5b81516001600160581b03198116811461201a57600080fd5b600080604083850312156131cb57600080fd5b82519150602083015167ffffffffffffffff81168114612e5f57600080fd5b60008083546131f881612f7a565b60018281168015613210576001811461322557613254565b60ff1984168752821515830287019450613254565b8760005260208060002060005b8581101561324b5781548a820152908401908201613232565b50505082870194505b50929695505050505050565b60008151613272818560208601612ad8565b9290920192915050565b6000835161328e818460208801612ad8565b8351908301906132a2818360208801612ad8565b01949350505050565b815167ffffffffffffffff8111156132c5576132c5612d42565b6132d38161308e8454612f7a565b602080601f83116001811461330857600084156132f05750858301515b600019600386901b1c1916600185901b178555612386565b600085815260208120601f198616915b8281101561333757888601518255948401946001909101908401613318565b508582101561312057939096015160001960f8600387901b161c19169092555050600190811b01905550565b60008251613375818460208701612ad8565b9190910192915050565b60008060006060848603121561339457600080fd5b8351925060208401516133a681612e23565b80925050604084015190509250925092565b6000826133c7576133c7612fe1565b500690565b747b226e616d65223a2022426c6f636b50617373202360581b815286516000906133fd816015850160208c01612ad8565b7f222c20226465736372697074696f6e223a20224578636c7573697665206163636015918401918201527f6573732070617373222c202263617465676f7279223a202200000000000000006035820152875161346081604d840160208c01612ad8565b6c11161011383934b1b2911d101160991b604d9290910191820152865161348e81605a840160208b01612ad8565b741116101137b934b3b4b730b6283934b1b2911d101160591b605a929091019182015285516134c481606f840160208a01612ad8565b6135356135276135216134f86134f2606f868801016c111610113137b73ab9911d101160991b8152600d0190565b8a613260565b7f222c2022646973636f756e744d657373616765223a2022000000000000000000815260170190565b87613260565b61227d60f01b815260020190565b9a9950505050505050505050565b7f646174613a6170706c69636174696f6e2f6a736f6e3b6261736536342c00000081526000825161357b81601d850160208701612ad8565b91909101601d0192915050565b60006020828403121561359a57600080fd5b815161201a81612b54565b6001600160a01b03858116825284166020820152604081018390526080606082018190526000906135d890830184612afc565b9695505050505050565b6000602082840312156135f457600080fd5b815161201a81612aa5565b808201808211156106a0576106a0612fb456fe4142434445464748494a4b4c4d4e4f505152535455565758595a6162636465666768696a6b6c6d6e6f707172737475767778797a303132333435363738392b2fa26469706673582212208b6a7044763702c11fd15690cffe55cedb7667b595c15c2971c66176abcb9e3164736f6c63430008190033",
  "linkReferences": {},
  "deployedLinkReferences": {}
}