{
  "_format": "hh-sol-artifact-1",
  "contractName": "BlockPass",
  "sourceName": "contracts/BlockPass.sol",
  "abi": [
    {
      "inputs": [],
      "stateMutability": "nonpayable",
      "type": "constructor"
    },
    {
      "inputs": [
        {
          "internalType": "address",
          "name": "sender",
          "type": "address"
        },
        {
          "internalType": "uint256",
          "name": "tokenId",
          "type": "uint256"
        },
        {
          "internalType": "address",
          "name": "owner",
          "type": "address"
        }
      ],
      "name": "ERC721IncorrectOwner",
      "type": "error"
    },
    {
      "inputs": [
        {
          "internalType": "address",
          "name": "operator",
          "type": "address"
        },
        {
          "internalType": "uint256",
          "name": "tokenId",
          "type": "uint256"
        }
      ],
      "name": "ERC721InsufficientApproval",
      "type": "error"
    },
    {
      "inputs": [
        {
          "internalType": "address",
          "name": "approver",
          "type": "address"
        }
      ],
      "name": "ERC721InvalidApprover",
      "type": "error"
    },
    {
      "inputs": [
        {
          "internalType": "address",
          "name": "operator",
          "type": "address"
        }
      ],
      "name": "ERC721InvalidOperator",
      "type": "error"
    },
    {
      "inputs": [
        {
          "internalType": "address",
          "name": "owner",
          "type": "address"
        }
      ],
      "name": "ERC721InvalidOwner",
      "type": "error"
    },
    {
      "inputs": [
        {
          "internalType": "address",
          "name": "receiver",
          "type": "address"
        }
      ],
      "name": "ERC721InvalidReceiver",
      "type": "error"
    },
    {
      "inputs": [
        {
          "internalType": "address",
          "name": "sender",
          "type": "address"
        }
      ],
      "name": "ERC721InvalidSender",
      "type": "error"
    },
    {
      "inputs": [
        {
          "internalType": "uint256",
          "name": "tokenId",
          "type": "uint256"
        }
      ],
      "name": "ERC721NonexistentToken",
      "type": "error"
    },
    {
      "inputs": [
        {
          "internalType": "address",
          "name": "owner",
          "type": "address"
        }
      ],
      "name": "OwnableInvalidOwner",
      "type": "error"
    },
    {
      "inputs": [
        {
          "internalType": "address",
          "name": "account",
          "type": "address"
        }
      ],
      "name": "OwnableUnauthorizedAccount",
      "type": "error"
    },
    {
      "anonymous": false,
      "inputs": [
        {
          "indexed": true,
          "internalType": "address",
          "name": "owner",
          "type": "address"
        },
        {
          "indexed": true,
          "internalType": "address",
          "name": "approved",
          "type": "address"
        },
        {
          "indexed": true,
          "internalType": "uint256",
          "name": "tokenId",
          "type": "uint256"
        }
      ],
      "name": "Approval",
      "type": "event"
    },
    {
      "anonymous": false,
      "inputs": [
        {
          "indexed": true,
          "internalType": "address",
          "name": "owner",
          "type": "address"
        },
        {
          "indexed": true,
          "internalType": "address",
          "name": "operator",
          "type": "address"
        },
        {
          "indexed": false,
          "internalType": "bool",
          "name": "approved",
          "type": "bool"
        }
      ],
      "name": "ApprovalForAll",
      "type": "event"
    },
    {
      "anonymous": false,
      "inputs": [
        {
          "indexed": false,
          "internalType": "uint256",
          "name": "_fromTokenId",
          "type": "uint256"
        },
        {
          "indexed": false,
          "internalType": "uint256",
          "name": "_toTokenId",
          "type": "uint256"
        }
      ],
      "name": "BatchMetadataUpdate",
      "type": "event"
    },
    {
      "anonymous": false,
      "inputs": [
        {
          "indexed": false,
          "internalType": "uint256",
          "name": "_tokenId",
          "type": "uint256"
        }
      ],
      "name": "MetadataUpdate",
      "type": "event"
    },
    {
      "anonymous": false,
      "inputs": [
        {
          "indexed": true,
          "internalType": "address",
          "name": "previousOwner",
          "type": "address"
        },
        {
          "indexed": true,
          "internalType": "address",
          "name": "newOwner",
          "type": "address"
        }
      ],
      "name": "OwnershipTransferred",
      "type": "event"
    },
    {
      "anonymous": false,
      "inputs": [
        {
          "indexed": true,
          "internalType": "uint256",
          "name": "ticketId",
          "type": "uint256"
        },
        {
          "indexed": true,
          "internalType": "address",
          "name": "organizer",
          "type": "address"
        }
      ],
      "name": "PassCreated",
      "type": "event"
    },
    {
      "anonymous": false,
      "inputs": [
        {
          "indexed": true,
          "internalType": "address",
          "name": "buyer",
          "type": "address"
        },
        {
          "indexed": true,
          "internalType": "uint256",
          "name": "ticketId",
          "type": "uint256"
        },
        {
          "indexed": false,
          "internalType": "uint256",
          "name": "tokenId",
          "type": "uint256"
        },
        {
          "indexed": false,
          "internalType": "uint256",
          "name": "pricePaid",
          "type": "uint256"
        },
        {
          "indexed": false,
          "internalType": "bool",
          "name": "bonus",
          "type": "bool"
        }
      ],
      "name": "PassPurchased",
      "type": "event"
    },
    {
      "anonymous": false,
      "inputs": [
        {
          "indexed": true,
          "internalType": "address",
          "name": "from",
          "type": "address"
        },
        {
          "indexed": true,
          "internalType": "address",
          "name": "to",
          "type": "address"
        },
        {
          "indexed": true,
          "internalType": "uint256",
          "name": "tokenId",
          "type": "uint256"
        }
      ],
      "name": "Transfer",
      "type": "event"
    },
    {
      "anonymous": false,
      "inputs": [
        {
          "indexed": false,
          "internalType": "uint256",
          "name": "priceInWei",
          "type": "uint256"
        }
      ],
      "name": "USDInWei",
      "type": "event"
    },
    {
      "stateMutability": "payable",
      "type": "fallback"
    },
    {
      "inputs": [
        {
          "internalType": "uint256",
          "name": "usdAmount",
          "type": "uint256"
        }
      ],
      "name": "_convertUsdToFLRWei",
      "outputs": [
        {
          "internalType": "uint256",
          "name": "flrPriceInWei",
          "type": "uint256"
        }
      ],
      "stateMutability": "nonpayable",
      "type": "function"
    },
    {
      "inputs": [],
      "name": "allBlockPassList",
      "outputs": [
        {
          "components": [
            {
              "internalType": "address",
              "name": "organizer",
              "type": "address"
            },
            {
              "internalType": "string",
              "name": "metadata",
              "type": "string"
            },
            {
              "internalType": "string",
              "name": "category",
              "type": "string"
            },
            {
              "internalType": "address",
              "name": "tokenAddress",
              "type": "address"
            },
            {
              "internalType": "int64",
              "name": "passesSold",
              "type": "int64"
            },
            {
              "internalType": "int64",
              "name": "maxPasses",
              "type": "int64"
            },
            {
              "internalType": "uint256",
              "name": "passPriceUSD",
              "type": "uint256"
            },
            {
              "internalType": "uint256",
              "name": "startTime",
              "type": "uint256"
            },
            {
              "internalType": "uint256",
              "name": "salesEndTime",
              "type": "uint256"
            },
            {
              "internalType": "bool",
              "name": "bpEnded",
              "type": "bool"
            }
          ],
          "internalType": "struct BlockPass.TicketPassDetails[]",
          "name": "",
          "type": "tuple[]"
        }
      ],
      "stateMutability": "view",
      "type": "function"
    },
    {
      "inputs": [
        {
          "internalType": "address",
          "name": "to",
          "type": "address"
        },
        {
          "internalType": "uint256",
          "name": "tokenId",
          "type": "uint256"
        }
      ],
      "name": "approve",
      "outputs": [],
      "stateMutability": "nonpayable",
      "type": "function"
    },
    {
      "inputs": [
        {
          "internalType": "address",
          "name": "owner",
          "type": "address"
        }
      ],
      "name": "balanceOf",
      "outputs": [
        {
          "internalType": "uint256",
          "name": "",
          "type": "uint256"
        }
      ],
      "stateMutability": "view",
      "type": "function"
    },
    {
      "inputs": [
        {
          "internalType": "uint256",
          "name": "",
          "type": "uint256"
        }
      ],
      "name": "blockPassList",
      "outputs": [
        {
          "internalType": "address",
          "name": "organizer",
          "type": "address"
        },
        {
          "internalType": "string",
          "name": "metadata",
          "type": "string"
        },
        {
          "internalType": "string",
          "name": "category",
          "type": "string"
        },
        {
          "internalType": "address",
          "name": "tokenAddress",
          "type": "address"
        },
        {
          "internalType": "int64",
          "name": "passesSold",
          "type": "int64"
        },
        {
          "internalType": "int64",
          "name": "maxPasses",
          "type": "int64"
        },
        {
          "internalType": "uint256",
          "name": "passPriceUSD",
          "type": "uint256"
        },
        {
          "internalType": "uint256",
          "name": "startTime",
          "type": "uint256"
        },
        {
          "internalType": "uint256",
          "name": "salesEndTime",
          "type": "uint256"
        },
        {
          "internalType": "bool",
          "name": "bpEnded",
          "type": "bool"
        }
      ],
      "stateMutability": "view",
      "type": "function"
    },
    {
      "inputs": [
        {
          "internalType": "int64",
          "name": "maxPasses",
          "type": "int64"
        },
        {
          "internalType": "uint256",
          "name": "passPriceUSD",
          "type": "uint256"
        },
        {
          "internalType": "string",
          "name": "metadata",
          "type": "string"
        },
        {
          "internalType": "string",
          "name": "category",
          "type": "string"
        },
        {
          "internalType": "uint256",
          "name": "salesEndTime",
          "type": "uint256"
        }
      ],
      "name": "createNewPass",
      "outputs": [],
      "stateMutability": "nonpayable",
      "type": "function"
    },
    {
      "inputs": [],
      "name": "getAllPasses",
      "outputs": [
        {
          "components": [
            {
              "internalType": "address",
              "name": "organizer",
              "type": "address"
            },
            {
              "internalType": "string",
              "name": "metadata",
              "type": "string"
            },
            {
              "internalType": "string",
              "name": "category",
              "type": "string"
            },
            {
              "internalType": "address",
              "name": "tokenAddress",
              "type": "address"
            },
            {
              "internalType": "int64",
              "name": "passesSold",
              "type": "int64"
            },
            {
              "internalType": "int64",
              "name": "maxPasses",
              "type": "int64"
            },
            {
              "internalType": "uint256",
              "name": "passPriceUSD",
              "type": "uint256"
            },
            {
              "internalType": "uint256",
              "name": "startTime",
              "type": "uint256"
            },
            {
              "internalType": "uint256",
              "name": "salesEndTime",
              "type": "uint256"
            },
            {
              "internalType": "bool",
              "name": "bpEnded",
              "type": "bool"
            }
          ],
          "internalType": "struct BlockPass.TicketPassDetails[]",
          "name": "",
          "type": "tuple[]"
        }
      ],
      "stateMutability": "view",
      "type": "function"
    },
    {
      "inputs": [
        {
          "internalType": "uint256",
          "name": "tokenId",
          "type": "uint256"
        }
      ],
      "name": "getApproved",
      "outputs": [
        {
          "internalType": "address",
          "name": "",
          "type": "address"
        }
      ],
      "stateMutability": "view",
      "type": "function"
    },
    {
      "inputs": [
        {
          "internalType": "string",
          "name": "category",
          "type": "string"
        }
      ],
      "name": "getByCategory",
      "outputs": [
        {
          "components": [
            {
              "internalType": "address",
              "name": "organizer",
              "type": "address"
            },
            {
              "internalType": "string",
              "name": "metadata",
              "type": "string"
            },
            {
              "internalType": "string",
              "name": "category",
              "type": "string"
            },
            {
              "internalType": "address",
              "name": "tokenAddress",
              "type": "address"
            },
            {
              "internalType": "int64",
              "name": "passesSold",
              "type": "int64"
            },
            {
              "internalType": "int64",
              "name": "maxPasses",
              "type": "int64"
            },
            {
              "internalType": "uint256",
              "name": "passPriceUSD",
              "type": "uint256"
            },
            {
              "internalType": "uint256",
              "name": "startTime",
              "type": "uint256"
            },
            {
              "internalType": "uint256",
              "name": "salesEndTime",
              "type": "uint256"
            },
            {
              "internalType": "bool",
              "name": "bpEnded",
              "type": "bool"
            }
          ],
          "internalType": "struct BlockPass.TicketPassDetails[]",
          "name": "",
          "type": "tuple[]"
        }
      ],
      "stateMutability": "view",
      "type": "function"
    },
    {
      "inputs": [
        {
          "internalType": "address",
          "name": "user",
          "type": "address"
        }
      ],
      "name": "getUserPurchases",
      "outputs": [
        {
          "internalType": "uint256[]",
          "name": "",
          "type": "uint256[]"
        }
      ],
      "stateMutability": "view",
      "type": "function"
    },
    {
      "inputs": [
        {
          "internalType": "address",
          "name": "user",
          "type": "address"
        }
      ],
      "name": "getUserTokens",
      "outputs": [
        {
          "internalType": "uint256[]",
          "name": "",
          "type": "uint256[]"
        }
      ],
      "stateMutability": "view",
      "type": "function"
    },
    {
      "inputs": [
        {
          "internalType": "address",
          "name": "owner",
          "type": "address"
        },
        {
          "internalType": "address",
          "name": "operator",
          "type": "address"
        }
      ],
      "name": "isApprovedForAll",
      "outputs": [
        {
          "internalType": "bool",
          "name": "",
          "type": "bool"
        }
      ],
      "stateMutability": "view",
      "type": "function"
    },
    {
      "inputs": [
        {
          "internalType": "string",
          "name": "",
          "type": "string"
        }
      ],
      "name": "lastSavedPrice",
      "outputs": [
        {
          "internalType": "uint256",
          "name": "",
          "type": "uint256"
        }
      ],
      "stateMutability": "view",
      "type": "function"
    },
    {
      "inputs": [
        {
          "internalType": "string",
          "name": "",
          "type": "string"
        }
      ],
      "name": "lastSavedTimestamp",
      "outputs": [
        {
          "internalType": "uint256",
          "name": "",
          "type": "uint256"
        }
      ],
      "stateMutability": "view",
      "type": "function"
    },
    {
      "inputs": [],
      "name": "name",
      "outputs": [
        {
          "internalType": "string",
          "name": "",
          "type": "string"
        }
      ],
      "stateMutability": "view",
      "type": "function"
    },
    {
      "inputs": [],
      "name": "owner",
      "outputs": [
        {
          "internalType": "address",
          "name": "",
          "type": "address"
        }
      ],
      "stateMutability": "view",
      "type": "function"
    },
    {
      "inputs": [
        {
          "internalType": "uint256",
          "name": "tokenId",
          "type": "uint256"
        }
      ],
      "name": "ownerOf",
      "outputs": [
        {
          "internalType": "address",
          "name": "",
          "type": "address"
        }
      ],
      "stateMutability": "view",
      "type": "function"
    },
    {
      "inputs": [
        {
          "internalType": "address",
          "name": "",
          "type": "address"
        },
        {
          "internalType": "uint256",
          "name": "",
          "type": "uint256"
        }
      ],
      "name": "passesPurchasedByUser",
      "outputs": [
        {
          "internalType": "uint256",
          "name": "",
          "type": "uint256"
        }
      ],
      "stateMutability": "view",
      "type": "function"
    },
    {
      "inputs": [
        {
          "internalType": "uint256",
          "name": "_ticketId",
          "type": "uint256"
        }
      ],
      "name": "purchasePass",
      "outputs": [],
      "stateMutability": "payable",
      "type": "function"
    },
    {
      "inputs": [],
      "name": "renounceOwnership",
      "outputs": [],
      "stateMutability": "nonpayable",
      "type": "function"
    },
    {
      "inputs": [
        {
          "internalType": "address",
          "name": "from",
          "type": "address"
        },
        {
          "internalType": "address",
          "name": "to",
          "type": "address"
        },
        {
          "internalType": "uint256",
          "name": "tokenId",
          "type": "uint256"
        }
      ],
      "name": "safeTransferFrom",
      "outputs": [],
      "stateMutability": "nonpayable",
      "type": "function"
    },
    {
      "inputs": [
        {
          "internalType": "address",
          "name": "from",
          "type": "address"
        },
        {
          "internalType": "address",
          "name": "to",
          "type": "address"
        },
        {
          "internalType": "uint256",
          "name": "tokenId",
          "type": "uint256"
        },
        {
          "internalType": "bytes",
          "name": "data",
          "type": "bytes"
        }
      ],
      "name": "safeTransferFrom",
      "outputs": [],
      "stateMutability": "nonpayable",
      "type": "function"
    },
    {
      "inputs": [
        {
          "internalType": "address",
          "name": "operator",
          "type": "address"
        },
        {
          "internalType": "bool",
          "name": "approved",
          "type": "bool"
        }
      ],
      "name": "setApprovalForAll",
      "outputs": [],
      "stateMutability": "nonpayable",
      "type": "function"
    },
    {
      "inputs": [
        {
          "internalType": "uint256",
          "name": "_threshold",
          "type": "uint256"
        }
      ],
      "name": "setVolatilityThreshold",
      "outputs": [],
      "stateMutability": "nonpayable",
      "type": "function"
    },
    {
      "inputs": [
        {
          "internalType": "bytes4",
          "name": "interfaceId",
          "type": "bytes4"
        }
      ],
      "name": "supportsInterface",
      "outputs": [
        {
          "internalType": "bool",
          "name": "",
          "type": "bool"
        }
      ],
      "stateMutability": "view",
      "type": "function"
    },
    {
      "inputs": [],
      "name": "symbol",
      "outputs": [
        {
          "internalType": "string",
          "name": "",
          "type": "string"
        }
      ],
      "stateMutability": "view",
      "type": "function"
    },
    {
      "inputs": [],
      "name": "ticketPassCount",
      "outputs": [
        {
          "internalType": "uint256",
          "name": "",
          "type": "uint256"
        }
      ],
      "stateMutability": "view",
      "type": "function"
    },
    {
      "inputs": [
        {
          "internalType": "uint256",
          "name": "",
          "type": "uint256"
        }
      ],
      "name": "ticketPasses",
      "outputs": [
        {
          "internalType": "address",
          "name": "organizer",
          "type": "address"
        },
        {
          "internalType": "string",
          "name": "metadata",
          "type": "string"
        },
        {
          "internalType": "string",
          "name": "category",
          "type": "string"
        },
        {
          "internalType": "address",
          "name": "tokenAddress",
          "type": "address"
        },
        {
          "internalType": "int64",
          "name": "passesSold",
          "type": "int64"
        },
        {
          "internalType": "int64",
          "name": "maxPasses",
          "type": "int64"
        },
        {
          "internalType": "uint256",
          "name": "passPriceUSD",
          "type": "uint256"
        },
        {
          "internalType": "uint256",
          "name": "startTime",
          "type": "uint256"
        },
        {
          "internalType": "uint256",
          "name": "salesEndTime",
          "type": "uint256"
        },
        {
          "internalType": "bool",
          "name": "bpEnded",
          "type": "bool"
        }
      ],
      "stateMutability": "view",
      "type": "function"
    },
    {
      "inputs": [
        {
          "internalType": "address",
          "name": "",
          "type": "address"
        },
        {
          "internalType": "uint256",
          "name": "",
          "type": "uint256"
        }
      ],
      "name": "tokenOfOwnerByIndex",
      "outputs": [
        {
          "internalType": "uint256",
          "name": "",
          "type": "uint256"
        }
      ],
      "stateMutability": "view",
      "type": "function"
    },
    {
      "inputs": [
        {
          "internalType": "uint256",
          "name": "tokenId",
          "type": "uint256"
        }
      ],
      "name": "tokenURI",
      "outputs": [
        {
          "internalType": "string",
          "name": "",
          "type": "string"
        }
      ],
      "stateMutability": "view",
      "type": "function"
    },
    {
      "inputs": [
        {
          "internalType": "address",
          "name": "from",
          "type": "address"
        },
        {
          "internalType": "address",
          "name": "to",
          "type": "address"
        },
        {
          "internalType": "uint256",
          "name": "tokenId",
          "type": "uint256"
        }
      ],
      "name": "transferFrom",
      "outputs": [],
      "stateMutability": "nonpayable",
      "type": "function"
    },
    {
      "inputs": [
        {
          "internalType": "address",
          "name": "newOwner",
          "type": "address"
        }
      ],
      "name": "transferOwnership",
      "outputs": [],
      "stateMutability": "nonpayable",
      "type": "function"
    },
    {
      "inputs": [],
      "name": "volatilityThreshold",
      "outputs": [
        {
          "internalType": "uint256",
          "name": "",
          "type": "uint256"
        }
      ],
      "stateMutability": "view",
      "type": "function"
    },
    {
      "stateMutability": "payable",
      "type": "receive"
    }
  ],
  "bytecode": "0x60806040526001600855600a805534801561001957600080fd5b503360405180604001604052806009815260200168426c6f636b5061737360b81b81525060405180604001604052806005815260200164425041535360d81b815250816000908161006a91906102a3565b50600161007782826102a3565b5050506001600160a01b0381166100a857604051631e4fbdf760e01b81526000600482015260240160405180910390fd5b6100b1816100df565b506100ba610131565b600c80546001600160a01b0319166001600160a01b0392909216919091179055610392565b600780546001600160a01b038381166001600160a01b0319831681179093556040519116919082907f8be0079c531659141344cd1fd0a4f28419497f9722a3daafe3b4186f6b6457e090600090a35050565b600073ad67fe66660fb8dfe9d6b1b4240d8650e30f60196001600160a01b031663159354a2604051602001610188906020808252600e908201526d2930b73237b6a73ab6b132b92b1960911b604082015260600190565b604051602081830303815290604052805190602001206040518263ffffffff1660e01b81526004016101bc91815260200190565b602060405180830381865afa1580156101d9573d6000803e3d6000fd5b505050506040513d601f19601f820116820180604052508101906101fd9190610362565b905090565b634e487b7160e01b600052604160045260246000fd5b600181811c9082168061022c57607f821691505b60208210810361024c57634e487b7160e01b600052602260045260246000fd5b50919050565b601f82111561029e576000816000526020600020601f850160051c8101602086101561027b5750805b601f850160051c820191505b8181101561029a57828155600101610287565b5050505b505050565b81516001600160401b038111156102bc576102bc610202565b6102d0816102ca8454610218565b84610252565b602080601f83116001811461030557600084156102ed5750858301515b600019600386901b1c1916600185901b17855561029a565b600085815260208120601f198616915b8281101561033457888601518255948401946001909101908401610315565b50858210156103525787850151600019600388901b60f8161c191681555b5050505050600190811b01905550565b60006020828403121561037457600080fd5b81516001600160a01b038116811461038b57600080fd5b9392505050565b613888806103a16000396000f3fe6080604052600436106101da5760003560e01c8063715018a611610101578063a22cb4651161009a578063c87b56dd1161006c578063c87b56dd146105b1578063d1d73635146105d1578063d3e4c05f146105f1578063e985e9c514610611578063f2fde38b1461063157005b8063a22cb4651461053c578063a231c2fb1461055c578063b88d4fde14610571578063c6e5d8f61461059157005b80638da5cb5b116100d35780638da5cb5b146104d35780638ea6b9c8146104f157806395d89b41146105115780639fe88c841461052657005b8063715018a6146104505780637a5e3ce4146104655780637db757721461047b5780638944a3b9146104b357005b80632f745c5911610173578063519dc8d211610145578063519dc8d2146103ab5780636352211e146103d85780636f323d11146103f857806370a082311461043057005b80632f745c591461031557806336a5af0d146103355780633f316fc51461036b57806342842e0e1461038b57005b80630c1f5659116101ac5780630c1f56591461029257806314462eda146102c05780631be59b75146102d357806323b872dd146102f557005b806301ffc9a7146101e357806306fdde0314610218578063081812fc1461023a578063095ea7b31461027257005b366101e157005b005b3480156101ef57600080fd5b506102036101fe366004612d18565b610651565b60405190151581526020015b60405180910390f35b34801561022457600080fd5b5061022d61067c565b60405161020f9190612d85565b34801561024657600080fd5b5061025a610255366004612d98565b61070e565b6040516001600160a01b03909116815260200161020f565b34801561027e57600080fd5b506101e161028d366004612dc6565b610737565b34801561029e57600080fd5b506102b26102ad366004612dc6565b610746565b60405190815260200161020f565b6101e16102ce366004612d98565b610777565b3480156102df57600080fd5b506102e8610b01565b60405161020f9190612df2565b34801561030157600080fd5b506101e1610310366004612f01565b610cfe565b34801561032157600080fd5b506102b2610330366004612dc6565b610d89565b34801561034157600080fd5b50610355610350366004612d98565b610da5565b60405161020f9a99989796959493929190612f42565b34801561037757600080fd5b506101e1610386366004613067565b610f36565b34801561039757600080fd5b506101e16103a6366004612f01565b61120b565b3480156103b757600080fd5b506103cb6103c63660046130f4565b61122b565b60405161020f9190613111565b3480156103e457600080fd5b5061025a6103f3366004612d98565b6112ed565b34801561040457600080fd5b506102b2610413366004613149565b805160208183018101805160108252928201919093012091525481565b34801561043c57600080fd5b506102b261044b3660046130f4565b6112f8565b34801561045c57600080fd5b506101e1611340565b34801561047157600080fd5b506102b260095481565b34801561048757600080fd5b506102b2610496366004613149565b805160208183018101805160118252928201919093012091525481565b3480156104bf57600080fd5b506103556104ce366004612d98565b611354565b3480156104df57600080fd5b506007546001600160a01b031661025a565b3480156104fd57600080fd5b506102e861050c366004613149565b611380565b34801561051d57600080fd5b5061022d611657565b34801561053257600080fd5b506102b2600a5481565b34801561054857600080fd5b506101e161055736600461318b565b611666565b34801561056857600080fd5b506102e8611671565b34801561057d57600080fd5b506101e161058c3660046131c4565b6118b3565b34801561059d57600080fd5b506103cb6105ac3660046130f4565b6118cb565b3480156105bd57600080fd5b5061022d6105cc366004612d98565b611937565b3480156105dd57600080fd5b506101e16105ec366004612d98565b611a40565b3480156105fd57600080fd5b506102b261060c366004612d98565b611a4d565b34801561061d57600080fd5b5061020361062c366004613243565b611c09565b34801561063d57600080fd5b506101e161064c3660046130f4565b611c37565b60006001600160e01b03198216632483248360e11b1480610676575061067682611c75565b92915050565b60606000805461068b90613271565b80601f01602080910402602001604051908101604052809291908181526020018280546106b790613271565b80156107045780601f106106d957610100808354040283529160200191610704565b820191906000526020600020905b8154815290600101906020018083116106e757829003601f168201915b5050505050905090565b600061071982611cc5565b506000828152600460205260409020546001600160a01b0316610676565b610742828233611cfe565b5050565b600e602052816000526040600020818154811061076257600080fd5b90600052602060002001600091509150505481565b6000818152600d602052604090206006810154421080159061079d575080600701544211155b6107e35760405162461bcd60e51b81526020600482015260126024820152714e6f7420696e2073616c652077696e646f7760701b60448201526064015b60405180910390fd5b600881015460ff16156108265760405162461bcd60e51b815260206004820152600b60248201526a14d85b195cc8195b99195960aa1b60448201526064016107da565b60048101546003820154600791820b600160a01b90910490910b126108785760405162461bcd60e51b815260206004820152600860248201526714dbdb19081bdd5d60c21b60448201526064016107da565b6108a0604051806040016040528060078152602001661193148bd554d160ca1b815250611d0b565b60006108af8260050154611a4d565b905060008190506108de604051806040016040528060078152602001661193148bd554d160ca1b815250611ec1565b156108fd5760646108f083605a6132bb565b6108fa91906132e8565b90505b803410156109455760405162461bcd60e51b8152602060048201526015602482015274125b9cdd59999a58da595b9d08119314881cd95b9d605a1b60448201526064016107da565b600061094f611f3d565b9050600061095f86848685611fcf565b905061096d336008546120ae565b610979600854826120c8565b6000868152600d602052604090206003018054600160a01b900460070b9060146109a2836132fc565b82546101009290920a6001600160401b0381810219909316919092169190910217905550336000818152600e60209081526040808320805460018181018355918552838520018b9055848452600f835281842060088054825493840183559186529484902090910155915482519081529081018690528415158183015290518892917fe1733dda0a35b3575afae89811cade653318ed099108b8b80709bc7b5628b8ad919081900360600190a360006064610a5e85605a6132bb565b610a6891906132e8565b86546040519192506001600160a01b03169082156108fc029083906000818181858888f19350505050158015610aa2573d6000803e3d6000fd5b5083341115610ae357336108fc610ab98634613322565b6040518115909202916000818181858888f19350505050158015610ae1573d6000803e3d6000fd5b505b60088054906000610af383613335565b919050555050505050505050565b6060600b805480602002602001604051908101604052809291908181526020016000905b82821015610cf55760008481526020908190206040805161014081019091526009850290910180546001600160a01b031682526001810180549293919291840191610b6f90613271565b80601f0160208091040260200160405190810160405280929190818152602001828054610b9b90613271565b8015610be85780601f10610bbd57610100808354040283529160200191610be8565b820191906000526020600020905b815481529060010190602001808311610bcb57829003601f168201915b50505050508152602001600282018054610c0190613271565b80601f0160208091040260200160405190810160405280929190818152602001828054610c2d90613271565b8015610c7a5780601f10610c4f57610100808354040283529160200191610c7a565b820191906000526020600020905b815481529060010190602001808311610c5d57829003601f168201915b505050918352505060038201546001600160a01b038116602080840191909152600160a01b909104600790810b60408401526004840154810b606084015260058401546080840152600684015460a084015283015460c083015260089092015460ff16151560e0909101529082526001929092019101610b25565b50505050905090565b6001600160a01b038216610d2857604051633250574960e11b8152600060048201526024016107da565b6000610d35838333612118565b9050836001600160a01b0316816001600160a01b031614610d83576040516364283d7b60e01b81526001600160a01b03808616600483015260248201849052821660448201526064016107da565b50505050565b600f602052816000526040600020818154811061076257600080fd5b600b8181548110610db557600080fd5b6000918252602090912060099091020180546001820180546001600160a01b03909216935090610de490613271565b80601f0160208091040260200160405190810160405280929190818152602001828054610e1090613271565b8015610e5d5780601f10610e3257610100808354040283529160200191610e5d565b820191906000526020600020905b815481529060010190602001808311610e4057829003601f168201915b505050505090806002018054610e7290613271565b80601f0160208091040260200160405190810160405280929190818152602001828054610e9e90613271565b8015610eeb5780601f10610ec057610100808354040283529160200191610eeb565b820191906000526020600020905b815481529060010190602001808311610ece57829003601f168201915b50505050600383015460048401546005850154600686015460078088015460089098015496976001600160a01b03861697600160a01b909604820b965093900b939192909160ff168a565b6000604051806101400160405280336001600160a01b03168152602001858152602001848152602001306001600160a01b03168152602001600060070b81526020018760070b81526020018681526020014281526020018342610f99919061334e565b8152600060209182018190526009548152600d825260409020825181546001600160a01b0319166001600160a01b039091161781559082015191925082916001820190610fe690826133a9565b5060408201516002820190610ffb90826133a9565b50606082015160038201805460808501516001600160a01b039384166001600160e01b031990921691909117600160a01b6001600160401b03928316021790915560a084015160048401805467ffffffffffffffff19169190921617905560c0830151600583015560e083015160068301556101008301516007830155610120909201516008909101805460ff1916911515919091179055600b805460018101825560009190915282517f0175b7a638427703f0dbe7bb9bbf987a2551717b34e79f33b5b1008d1fa01db9600990920291820180546001600160a01b0319169190931617825560208301518392917f0175b7a638427703f0dbe7bb9bbf987a2551717b34e79f33b5b1008d1fa01dba019061111690826133a9565b506040820151600282019061112b90826133a9565b50606082015160038201805460808501516001600160a01b039093166001600160e01b031990911617600160a01b6001600160401b039384160217905560a083015160048301805467ffffffffffffffff19169190921617905560c0820151600582015560e082015160068201556101008201516007820155610120909101516008909101805460ff19169115159190911790556009546040513391907f4ee25b9cf3354f01e5e2f24f5ac7f2c94b22defe81abd8e113e2a6025682a69590600090a3600980549060006111fe83613335565b9190505550505050505050565b611226838383604051806020016040528060008152506118b3565b505050565b60606000611238836112f8565b90506000816001600160401b0381111561125457611254612fbc565b60405190808252806020026020018201604052801561127d578160200160208202803683370190505b50905060005b828110156112e5576001600160a01b0385166000908152600f602052604090208054829081106112b5576112b5613468565b90600052602060002001548282815181106112d2576112d2613468565b6020908102919091010152600101611283565b509392505050565b600061067682611cc5565b60006001600160a01b038216611324576040516322718ad960e21b8152600060048201526024016107da565b506001600160a01b031660009081526003602052604090205490565b611348612213565b6113526000612240565b565b600d60205260009081526040902080546001820180546001600160a01b039092169291610de490613271565b60606000806000600b805490506001600160401b038111156113a4576113a4612fbc565b6040519080825280602002602001820160405280156113dd57816020015b6113ca612c95565b8152602001906001900390816113c25790505b5090505b600b5483101561164f576000600b848154811061140057611400613468565b600091825260209182902060408051610140810190915260099092020180546001600160a01b03168252600181018054929391929184019161144190613271565b80601f016020809104026020016040519081016040528092919081815260200182805461146d90613271565b80156114ba5780601f1061148f576101008083540402835291602001916114ba565b820191906000526020600020905b81548152906001019060200180831161149d57829003601f168201915b505050505081526020016002820180546114d390613271565b80601f01602080910402602001604051908101604052809291908181526020018280546114ff90613271565b801561154c5780601f106115215761010080835404028352916020019161154c565b820191906000526020600020905b81548152906001019060200180831161152f57829003601f168201915b505050918352505060038201546001600160a01b038116602080840191909152600160a01b909104600790810b6040808501919091526004850154820b606085015260058501546080850152600685015460a08501529084015460c084015260089093015460ff16151560e09092019190915290519192506115d09188910161347e565b6040516020818303038152906040528051906020012081604001516040516020016115fb919061347e565b6040516020818303038152906040528051906020012003611643578082848151811061162957611629613468565b6020026020010181905250828061163f90613335565b9350505b506001909201916113e1565b949350505050565b60606001805461068b90613271565b610742338383612292565b606060006009546001600160401b0381111561168f5761168f612fbc565b6040519080825280602002602001820160405280156116c857816020015b6116b5612c95565b8152602001906001900390816116ad5790505b50905060005b6009548110156118ad576000818152600d60209081526040918290208251610140810190935280546001600160a01b03168352600181018054919284019161171590613271565b80601f016020809104026020016040519081016040528092919081815260200182805461174190613271565b801561178e5780601f106117635761010080835404028352916020019161178e565b820191906000526020600020905b81548152906001019060200180831161177157829003601f168201915b505050505081526020016002820180546117a790613271565b80601f01602080910402602001604051908101604052809291908181526020018280546117d390613271565b80156118205780601f106117f557610100808354040283529160200191611820565b820191906000526020600020905b81548152906001019060200180831161180357829003601f168201915b505050918352505060038201546001600160a01b0381166020830152600160a01b9004600790810b60408301526004830154810b606083015260058301546080830152600683015460a083015282015460c082015260089091015460ff16151560e090910152825183908390811061189a5761189a613468565b60209081029190910101526001016116ce565b50919050565b6118be848484610cfe565b610d833385858585612331565b6001600160a01b0381166000908152600e602090815260409182902080548351818402810184019094528084526060939283018282801561192b57602002820191906000526020600020905b815481526020019060010190808311611917575b50505050509050919050565b606061194282611cc5565b506000828152600660205260408120805461195c90613271565b80601f016020809104026020016040519081016040528092919081815260200182805461198890613271565b80156119d55780601f106119aa576101008083540402835291602001916119d5565b820191906000526020600020905b8154815290600101906020018083116119b857829003601f168201915b5050505050905060006119f360408051602081019091526000815290565b90508051600003611a05575092915050565b815115611a37578082604051602001611a1f92919061349a565b60405160208183030381529060405292505050919050565b61164f8461245c565b611a48612213565b600a55565b600080611a586124d0565b90506000611a64612599565b60408051633e2dea0960e21b815260016004820152602481019190915260076044820152661193148bd554d160ca1b60648201526001600160a01b03919091169063f8b7a82490608401602060405180830381865afa158015611acb573d6000803e3d6000fd5b505050506040513d601f19601f82011682018060405250810190611aef91906134c9565b604051632cff56fb60e11b81526001600160581b0319821660048201529091506001600160a01b038316906359feadf69060240160408051808303816000875af1158015611b41573d6000803e3d6000fd5b505050506040513d601f19601f82011682018060405250810190611b6591906134f3565b50925082611baa5760405162461bcd60e51b8152602060048201526012602482015271496e76616c6964204654534f20707269636560701b60448201526064016107da565b82611bbd85670de0b6b3a76400006132bb565b611bc791906132e8565b92507f186388859642f2fd96e5dd89f690b2e28d22af47d2d3e29e8c82a8be57db299483604051611bfa91815260200190565b60405180910390a15050919050565b6001600160a01b03918216600090815260056020908152604080832093909416825291909152205460ff1690565b611c3f612213565b6001600160a01b038116611c6957604051631e4fbdf760e01b8152600060048201526024016107da565b611c7281612240565b50565b60006001600160e01b031982166380ac58cd60e01b1480611ca657506001600160e01b03198216635b5e139f60e01b145b8061067657506301ffc9a760e01b6001600160e01b0319831614610676565b6000818152600260205260408120546001600160a01b03168061067657604051637e27328960e01b8152600481018490526024016107da565b61122683838360016125f5565b601081604051611d1b919061347e565b908152602001604051809103902054600003611c72576000611d3b6124d0565b90506000611d47612599565b6001600160a01b031663f8b7a8246001856040518363ffffffff1660e01b8152600401611d75929190613524565b602060405180830381865afa158015611d92573d6000803e3d6000fd5b505050506040513d601f19601f82011682018060405250810190611db691906134c9565b604051632cff56fb60e11b81526001600160581b0319821660048201529091506000906001600160a01b038416906359feadf69060240160408051808303816000875af1158015611e0b573d6000803e3d6000fd5b505050506040513d601f19601f82011682018060405250810190611e2f91906134f3565b50905060008111611e775760405162461bcd60e51b8152602060048201526012602482015271496e76616c6964206665656420707269636560701b60448201526064016107da565b80601085604051611e88919061347e565b90815260200160405180910390208190555042601185604051611eab919061347e565b9081526040519081900360200190205550505050565b600080611ecd836126fb565b90506000601084604051611ee1919061347e565b90815260200160405180910390205490506000818311611f0a57611f058383613322565b611f14565b611f148284613322565b9050600082611f248360646132bb565b611f2e91906132e8565b600a5411159695505050505050565b600080600c60009054906101000a90046001600160a01b03166001600160a01b031663dbdff2c16040518163ffffffff1660e01b8152600401606060405180830381865afa158015611f93573d6000803e3d6000fd5b505050506040513d601f19601f82011682018060405250810190611fb79190613540565b50509050600581611fc89190613579565b1592915050565b6000848152600d60205260408120606091611fe987612842565b82600201611ff688612842565b611fff88612842565b8761202a57604051806040016040528060088152602001674e6f20426f6e757360c01b815250612050565b6040518060400160405280600c81526020016b57696e6e657220426f6e757360a01b8152505b8660010160405160200161206996959493929190613600565b6040516020818303038152906040529050612083816128d4565b6040516020016120939190613756565b60405160208183030381529060405292505050949350505050565b6107428282604051806020016040528060008152506128fa565b60008281526006602052604090206120e082826133a9565b506040518281527ff8e1a15aba9398e019f0b49df1a4fde98ee17ae345cb5f6b5e2c27f5033e8ce79060200160405180910390a15050565b6000828152600260205260408120546001600160a01b039081169083161561214557612145818486612912565b6001600160a01b03811615612183576121626000856000806125f5565b6001600160a01b038116600090815260036020526040902080546000190190555b6001600160a01b038516156121b2576001600160a01b0385166000908152600360205260409020805460010190555b60008481526002602052604080822080546001600160a01b0319166001600160a01b0389811691821790925591518793918516917fddf252ad1be2c89b69c2b068fc378daa952ba7f163c4a11628f55a4df523b3ef91a490505b9392505050565b6007546001600160a01b031633146113525760405163118cdaa760e01b81523360048201526024016107da565b600780546001600160a01b038381166001600160a01b0319831681179093556040519116919082907f8be0079c531659141344cd1fd0a4f28419497f9722a3daafe3b4186f6b6457e090600090a35050565b6001600160a01b0382166122c457604051630b61174360e31b81526001600160a01b03831660048201526024016107da565b6001600160a01b03838116600081815260056020908152604080832094871680845294825291829020805460ff191686151590811790915591519182527f17307eab39ab6107e8899845ad3d59bd9653f200f220920489ca2b5937696c31910160405180910390a3505050565b6001600160a01b0383163b1561245557604051630a85bd0160e11b81526001600160a01b0384169063150b7a029061237390889088908790879060040161379b565b6020604051808303816000875af19250505080156123ae575060408051601f3d908101601f191682019092526123ab918101906137d8565b60015b612417573d8080156123dc576040519150601f19603f3d011682016040523d82523d6000602084013e6123e1565b606091505b50805160000361240f57604051633250574960e11b81526001600160a01b03851660048201526024016107da565b805181602001fd5b6001600160e01b03198116630a85bd0160e11b1461245357604051633250574960e11b81526001600160a01b03851660048201526024016107da565b505b5050505050565b606061246782611cc5565b50600061247f60408051602081019091526000815290565b9050600081511161249f576040518060200160405280600081525061220c565b806124a984612842565b6040516020016124ba92919061349a565b6040516020818303038152906040529392505050565b600073ad67fe66660fb8dfe9d6b1b4240d8650e30f60196001600160a01b031663159354a260405160200161251f90602080825260069082015265233a39b7ab1960d11b604082015260600190565b604051602081830303815290604052805190602001206040518263ffffffff1660e01b815260040161255391815260200190565b602060405180830381865afa158015612570573d6000803e3d6000fd5b505050506040513d601f19601f8201168201806040525081019061259491906137f5565b905090565b600073ad67fe66660fb8dfe9d6b1b4240d8650e30f60196001600160a01b031663159354a260405160200161251f90602080825260139082015272233a39b7a332b2b224b221b7b73b32b93a32b960691b604082015260600190565b808061260957506001600160a01b03821615155b156126cb57600061261984611cc5565b90506001600160a01b038316158015906126455750826001600160a01b0316816001600160a01b031614155b801561265857506126568184611c09565b155b156126815760405163a9fbf51f60e01b81526001600160a01b03841660048201526024016107da565b81156126c95783856001600160a01b0316826001600160a01b03167f8c5be1e5ebec7d5bd14f71427d1e84f3dd0314c0f7b2291e5b200ac8c7c3b92560405160405180910390a45b505b5050600090815260046020526040902080546001600160a01b0319166001600160a01b0392909216919091179055565b6000806127066124d0565b90506000612712612599565b6001600160a01b031663f8b7a8246001866040518363ffffffff1660e01b8152600401612740929190613524565b602060405180830381865afa15801561275d573d6000803e3d6000fd5b505050506040513d601f19601f8201168201806040525081019061278191906134c9565b604051632cff56fb60e11b81526001600160581b0319821660048201529091506000906001600160a01b038416906359feadf69060240160408051808303816000875af11580156127d6573d6000803e3d6000fd5b505050506040513d601f19601f820116820180604052508101906127fa91906134f3565b5090506000811161164f5760405162461bcd60e51b8152602060048201526012602482015271496e76616c6964204654534f20707269636560701b60448201526064016107da565b6060600061284f83612976565b60010190506000816001600160401b0381111561286e5761286e612fbc565b6040519080825280601f01601f191660200182016040528015612898576020820181803683370190505b5090508181016020015b600019016f181899199a1a9b1b9c1cb0b131b232b360811b600a86061a8153600a85049450846128a257509392505050565b606061067682604051806060016040528060408152602001613813604091396001612a4e565b6129048383612bcd565b611226336000858585612331565b61291d838383612c32565b611226576001600160a01b03831661294b57604051637e27328960e01b8152600481018290526024016107da565b60405163177e802f60e01b81526001600160a01b0383166004820152602481018290526044016107da565b60008072184f03e93ff9f4daa797ed6e38ed64bf6a1f0160401b83106129b55772184f03e93ff9f4daa797ed6e38ed64bf6a1f0160401b830492506040015b6d04ee2d6d415b85acef810000000083106129e1576d04ee2d6d415b85acef8100000000830492506020015b662386f26fc1000083106129ff57662386f26fc10000830492506010015b6305f5e1008310612a17576305f5e100830492506008015b6127108310612a2b57612710830492506004015b60648310612a3d576064830492506002015b600a83106106765760010192915050565b60608351600003612a6e575060408051602081019091526000815261220c565b600082612a9f57600385516004612a8591906132bb565b612a9090600261334e565b612a9a91906132e8565b612ac4565b600385516002612aaf919061334e565b612ab991906132e8565b612ac49060046132bb565b90506000816001600160401b03811115612ae057612ae0612fbc565b6040519080825280601f01601f191660200182016040528015612b0a576020820181803683370190505b50905060018501602082018788518901602081018051600082525b82841015612b80576003840193508351603f8160121c168701518653600186019550603f81600c1c168701518653600186019550603f8160061c168701518653600186019550603f8116870151865350600185019450612b25565b905250508515612bc157600388510660018114612ba45760028114612bb757612bbf565b603d6001830353603d6002830353612bbf565b603d60018303535b505b50909695505050505050565b6001600160a01b038216612bf757604051633250574960e11b8152600060048201526024016107da565b6000612c0583836000612118565b90506001600160a01b03811615611226576040516339e3563760e11b8152600060048201526024016107da565b60006001600160a01b0383161580159061164f5750826001600160a01b0316846001600160a01b03161480612c6c5750612c6c8484611c09565b8061164f5750506000908152600460205260409020546001600160a01b03908116911614919050565b60405180610140016040528060006001600160a01b03168152602001606081526020016060815260200160006001600160a01b03168152602001600060070b8152602001600060070b81526020016000815260200160008152602001600081526020016000151581525090565b6001600160e01b031981168114611c7257600080fd5b600060208284031215612d2a57600080fd5b813561220c81612d02565b60005b83811015612d50578181015183820152602001612d38565b50506000910152565b60008151808452612d71816020860160208601612d35565b601f01601f19169290920160200192915050565b60208152600061220c6020830184612d59565b600060208284031215612daa57600080fd5b5035919050565b6001600160a01b0381168114611c7257600080fd5b60008060408385031215612dd957600080fd5b8235612de481612db1565b946020939093013593505050565b600060208083018184528085518083526040925060408601915060408160051b87010184880160005b83811015612ef357888303603f19018552815180516001600160a01b0316845261014088820151818a870152612e5382870182612d59565b9150508782015185820389870152612e6b8282612d59565b915050606080830151612e88828801826001600160a01b03169052565b5050608080830151612e9e8288018260070b9052565b505060a080830151612eb48288018260070b9052565b505060c0828101519086015260e08083015190860152610100808301519086015261012091820151151591909401529386019390860190600101612e1b565b509098975050505050505050565b600080600060608486031215612f1657600080fd5b8335612f2181612db1565b92506020840135612f3181612db1565b929592945050506040919091013590565b6001600160a01b038b8116825261014060208301819052600091612f688483018e612d59565b91508382036040850152612f7c828d612d59565b9a1660608401525050600796870b60808201529490950b60a085015260c084019290925260e0830152610100820152901515610120909101529392505050565b634e487b7160e01b600052604160045260246000fd5b60006001600160401b0380841115612fec57612fec612fbc565b604051601f8501601f19908116603f0116810190828211818310171561301457613014612fbc565b8160405280935085815286868601111561302d57600080fd5b858560208301376000602087830101525050509392505050565b600082601f83011261305857600080fd5b61220c83833560208501612fd2565b600080600080600060a0868803121561307f57600080fd5b85358060070b811461309057600080fd5b94506020860135935060408601356001600160401b03808211156130b357600080fd5b6130bf89838a01613047565b945060608801359150808211156130d557600080fd5b506130e288828901613047565b95989497509295608001359392505050565b60006020828403121561310657600080fd5b813561220c81612db1565b6020808252825182820181905260009190848201906040850190845b81811015612bc15783518352928401929184019160010161312d565b60006020828403121561315b57600080fd5b81356001600160401b0381111561317157600080fd5b61164f84828501613047565b8015158114611c7257600080fd5b6000806040838503121561319e57600080fd5b82356131a981612db1565b915060208301356131b98161317d565b809150509250929050565b600080600080608085870312156131da57600080fd5b84356131e581612db1565b935060208501356131f581612db1565b92506040850135915060608501356001600160401b0381111561321757600080fd5b8501601f8101871361322857600080fd5b61323787823560208401612fd2565b91505092959194509250565b6000806040838503121561325657600080fd5b823561326181612db1565b915060208301356131b981612db1565b600181811c9082168061328557607f821691505b6020821081036118ad57634e487b7160e01b600052602260045260246000fd5b634e487b7160e01b600052601160045260246000fd5b8082028115828204841417610676576106766132a5565b634e487b7160e01b600052601260045260246000fd5b6000826132f7576132f76132d2565b500490565b60008160070b677fffffffffffffff8103613319576133196132a5565b60010192915050565b81810381811115610676576106766132a5565b600060018201613347576133476132a5565b5060010190565b80820180821115610676576106766132a5565b601f821115611226576000816000526020600020601f850160051c8101602086101561338a5750805b601f850160051c820191505b8181101561245357828155600101613396565b81516001600160401b038111156133c2576133c2612fbc565b6133d6816133d08454613271565b84613361565b602080601f83116001811461340b57600084156133f35750858301515b600019600386901b1c1916600185901b178555612453565b600085815260208120601f198616915b8281101561343a5788860151825594840194600190910190840161341b565b50858210156134585787850151600019600388901b60f8161c191681555b5050505050600190811b01905550565b634e487b7160e01b600052603260045260246000fd5b60008251613490818460208701612d35565b9190910192915050565b600083516134ac818460208801612d35565b8351908301906134c0818360208801612d35565b01949350505050565b6000602082840312156134db57600080fd5b81516001600160581b03198116811461220c57600080fd5b6000806040838503121561350657600080fd5b8251915060208301516001600160401b03811681146131b957600080fd5b60ff8316815260406020820152600061164f6040830184612d59565b60008060006060848603121561355557600080fd5b8351925060208401516135678161317d565b80925050604084015190509250925092565b600082613588576135886132d2565b500690565b6000815461359a81613271565b600182811680156135b257600181146135c7576135f6565b60ff19841687528215158302870194506135f6565b8560005260208060002060005b858110156135ed5781548a8201529084019082016135d4565b50505082870194505b5050505092915050565b737b226e616d65223a22426c6f636b50617373202360601b81528651600090613630816014850160208c01612d35565b7f222c20226465736372697074696f6e223a224578636c757369766520616363656014918401918201526b039b9903830b9b9903337b9160a51b603482015261367c604082018961358d565b6f11161011383934b1b2a830b4b2111d1160811b815287519091506136a8816010840160208b01612d35565b731116101137b934b3b4b730b6283934b1b2911d1160611b6010929091019182015285516136dd816024840160208a01612d35565b6b111610113137b73ab9911d1160a11b60249290910191820152845161370a816030840160208901612d35565b61374861373a6137346030848601016e1116101136b2ba30b230ba30911d1160891b8152600f0190565b8761358d565b61227d60f01b815260020190565b9a9950505050505050505050565b7f646174613a6170706c69636174696f6e2f6a736f6e3b6261736536342c00000081526000825161378e81601d850160208701612d35565b91909101601d0192915050565b6001600160a01b03858116825284166020820152604081018390526080606082018190526000906137ce90830184612d59565b9695505050505050565b6000602082840312156137ea57600080fd5b815161220c81612d02565b60006020828403121561380757600080fd5b815161220c81612db156fe4142434445464748494a4b4c4d4e4f505152535455565758595a6162636465666768696a6b6c6d6e6f707172737475767778797a303132333435363738392b2fa2646970667358221220d0dec51aabaec1bd4a2222409cec8fe8a986babb8e41ada2bf8ebc474ec4a01964736f6c63430008190033",
  "linkReferences": {},
  "deployedLinkReferences": {}
}